{
  "contracts/Raffle.sol": {
    "Raffle": {
      "abi": [
        {
          "inputs": [
            {
              "internalType": "address",
              "name": "vrfCoordinatorV2",
              "type": "address"
            },
            {
              "internalType": "uint256",
              "name": "enteranceFee",
              "type": "uint256"
            },
            {
              "internalType": "bytes32",
              "name": "gasLane",
              "type": "bytes32"
            },
            {
              "internalType": "uint64",
              "name": "subscriptionId",
              "type": "uint64"
            },
            {
              "internalType": "uint32",
              "name": "callbackGasLimit",
              "type": "uint32"
            },
            {
              "internalType": "uint256",
              "name": "interval",
              "type": "uint256"
            }
          ],
          "stateMutability": "nonpayable",
          "type": "constructor"
        },
        {
          "inputs": [
            {
              "internalType": "address",
              "name": "have",
              "type": "address"
            },
            {
              "internalType": "address",
              "name": "want",
              "type": "address"
            }
          ],
          "name": "OnlyCoordinatorCanFulfill",
          "type": "error"
        },
        {
          "inputs": [],
          "name": "Raffle_NotEnoughETHEntered",
          "type": "error"
        },
        {
          "inputs": [],
          "name": "Raffle__NotOpen",
          "type": "error"
        },
        {
          "inputs": [],
          "name": "Raffle__TransferFailed",
          "type": "error"
        },
        {
          "inputs": [
            {
              "internalType": "uint256",
              "name": "currentBalance",
              "type": "uint256"
            },
            {
              "internalType": "uint256",
              "name": "numPlayers",
              "type": "uint256"
            },
            {
              "internalType": "uint256",
              "name": "raffleState",
              "type": "uint256"
            }
          ],
          "name": "Raffle__UpkeepNotNeeded",
          "type": "error"
        },
        {
          "anonymous": false,
          "inputs": [
            {
              "indexed": true,
              "internalType": "address",
              "name": "player",
              "type": "address"
            }
          ],
          "name": "RaffleEnter",
          "type": "event"
        },
        {
          "anonymous": false,
          "inputs": [
            {
              "indexed": true,
              "internalType": "uint256",
              "name": "requestId",
              "type": "uint256"
            }
          ],
          "name": "RequestedRaffleWinner",
          "type": "event"
        },
        {
          "anonymous": false,
          "inputs": [
            {
              "indexed": true,
              "internalType": "address",
              "name": "winner",
              "type": "address"
            }
          ],
          "name": "WinnerPicked",
          "type": "event"
        },
        {
          "inputs": [
            {
              "internalType": "bytes",
              "name": "",
              "type": "bytes"
            }
          ],
          "name": "checkUpkeep",
          "outputs": [
            {
              "internalType": "bool",
              "name": "upkeepNeeded",
              "type": "bool"
            },
            {
              "internalType": "bytes",
              "name": "",
              "type": "bytes"
            }
          ],
          "stateMutability": "nonpayable",
          "type": "function"
        },
        {
          "inputs": [],
          "name": "enterRaffle",
          "outputs": [],
          "stateMutability": "payable",
          "type": "function"
        },
        {
          "inputs": [],
          "name": "getEnteranceFee",
          "outputs": [
            {
              "internalType": "uint256",
              "name": "",
              "type": "uint256"
            }
          ],
          "stateMutability": "view",
          "type": "function"
        },
        {
          "inputs": [],
          "name": "getLatestTimeStamp",
          "outputs": [
            {
              "internalType": "uint256",
              "name": "",
              "type": "uint256"
            }
          ],
          "stateMutability": "view",
          "type": "function"
        },
        {
          "inputs": [],
          "name": "getNumWords",
          "outputs": [
            {
              "internalType": "uint32",
              "name": "",
              "type": "uint32"
            }
          ],
          "stateMutability": "pure",
          "type": "function"
        },
        {
          "inputs": [],
          "name": "getNumberOfPlayers",
          "outputs": [
            {
              "internalType": "uint256",
              "name": "",
              "type": "uint256"
            }
          ],
          "stateMutability": "view",
          "type": "function"
        },
        {
          "inputs": [
            {
              "internalType": "uint256",
              "name": "index",
              "type": "uint256"
            }
          ],
          "name": "getPlayer",
          "outputs": [
            {
              "internalType": "address",
              "name": "",
              "type": "address"
            }
          ],
          "stateMutability": "view",
          "type": "function"
        },
        {
          "inputs": [],
          "name": "getRaffleState",
          "outputs": [
            {
              "internalType": "enum Raffle.RaffleState",
              "name": "",
              "type": "uint8"
            }
          ],
          "stateMutability": "view",
          "type": "function"
        },
        {
          "inputs": [],
          "name": "getRecentWinner",
          "outputs": [
            {
              "internalType": "address",
              "name": "",
              "type": "address"
            }
          ],
          "stateMutability": "view",
          "type": "function"
        },
        {
          "inputs": [],
          "name": "getRequestConfirmations",
          "outputs": [
            {
              "internalType": "uint256",
              "name": "",
              "type": "uint256"
            }
          ],
          "stateMutability": "pure",
          "type": "function"
        },
        {
          "inputs": [
            {
              "internalType": "bytes",
              "name": "",
              "type": "bytes"
            }
          ],
          "name": "performUpkeep",
          "outputs": [],
          "stateMutability": "nonpayable",
          "type": "function"
        },
        {
          "inputs": [
            {
              "internalType": "uint256",
              "name": "requestId",
              "type": "uint256"
            },
            {
              "internalType": "uint256[]",
              "name": "randomWords",
              "type": "uint256[]"
            }
          ],
          "name": "rawFulfillRandomWords",
          "outputs": [],
          "stateMutability": "nonpayable",
          "type": "function"
        }
      ],
      "devdoc": {
        "author": "Dev",
        "details": "This implements Chainlink VRF and Chainlink keepers",
        "kind": "dev",
        "methods": {
          "checkUpkeep(bytes)": {
            "details": "This is the function that Chainlink calls to pick a winner."
          }
        },
        "title": "A sample Raffle Contract",
        "version": 1
      },
      "evm": {
        "bytecode": {
          "linkReferences": {},
          "object": "6101606040523480156200001257600080fd5b50604051620017d9380380620017d98339818101604052810190620000389190620001ad565b858073ffffffffffffffffffffffffffffffffffffffff1660808173ffffffffffffffffffffffffffffffffffffffff1660601b81525050508460a081815250508573ffffffffffffffffffffffffffffffffffffffff1660c08173ffffffffffffffffffffffffffffffffffffffff1660601b815250508360e081815250508267ffffffffffffffff166101008167ffffffffffffffff1660c01b815250508163ffffffff166101208163ffffffff1660e01b815250506000600160146101000a81548160ff02191690836001811115620001195762000118620002b5565b5b0217905550426002819055508061014081815250505050505050506200036b565b6000815190506200014b81620002e9565b92915050565b600081519050620001628162000303565b92915050565b60008151905062000179816200031d565b92915050565b600081519050620001908162000337565b92915050565b600081519050620001a78162000351565b92915050565b60008060008060008060c08789031215620001cd57620001cc620002e4565b5b6000620001dd89828a016200013a565b9650506020620001f089828a0162000168565b95505060406200020389828a0162000151565b94505060606200021689828a0162000196565b93505060806200022989828a016200017f565b92505060a06200023c89828a0162000168565b9150509295509295509295565b6000620002568262000267565b9050919050565b6000819050919050565b600073ffffffffffffffffffffffffffffffffffffffff82169050919050565b6000819050919050565b600063ffffffff82169050919050565b600067ffffffffffffffff82169050919050565b7f4e487b7100000000000000000000000000000000000000000000000000000000600052602160045260246000fd5b600080fd5b620002f48162000249565b81146200030057600080fd5b50565b6200030e816200025d565b81146200031a57600080fd5b50565b620003288162000287565b81146200033457600080fd5b50565b620003428162000291565b81146200034e57600080fd5b50565b6200035c81620002a1565b81146200036857600080fd5b50565b60805160601c60a05160c05160601c60e0516101005160c01c6101205160e01c610140516113f9620003e060003960006107aa0152600061063701526000610614015260006105f3015260006105b7015260008181610389015261072d0152600081816102c9015261031d01526113f96000f3fe6080604052600436106100a75760003560e01c8063535bf50f11610064578063535bf50f1461018957806353a2c19a146101b45780635f1b0fd8146101df5780636e04ff0d1461020a578063e55ae4e814610248578063fd6673f514610285576100a7565b8063115cbaf5146100ac5780631fe543e3146100d75780632cfcc53914610100578063320229eb1461010a5780634585e33b14610135578063473f1ddc1461015e575b600080fd5b3480156100b857600080fd5b506100c16102b0565b6040516100ce9190610fc9565b60405180910390f35b3480156100e357600080fd5b506100fe60048036038101906100f99190610dbd565b6102c7565b005b610108610387565b005b34801561011657600080fd5b5061011f6104f6565b60405161012c9190610fe4565b60405180910390f35b34801561014157600080fd5b5061015c60048036038101906101579190610ccd565b610500565b005b34801561016a57600080fd5b506101736106ff565b6040516101809190610f02565b60405180910390f35b34801561019557600080fd5b5061019e610729565b6040516101ab9190610fe4565b60405180910390f35b3480156101c057600080fd5b506101c9610751565b6040516101d69190611036565b60405180910390f35b3480156101eb57600080fd5b506101f461075a565b6040516102019190610fe4565b60405180910390f35b34801561021657600080fd5b50610231600480360381019061022c9190610d1a565b610767565b60405161023f929190610f46565b60405180910390f35b34801561025457600080fd5b5061026f600480360381019061026a9190610d63565b610814565b60405161027c9190610f02565b60405180910390f35b34801561029157600080fd5b5061029a61085b565b6040516102a79190610fe4565b60405180910390f35b6000600160149054906101000a900460ff16905090565b7f000000000000000000000000000000000000000000000000000000000000000073ffffffffffffffffffffffffffffffffffffffff163373ffffffffffffffffffffffffffffffffffffffff161461037957337f00000000000000000000000000000000000000000000000000000000000000006040517f1cf993f4000000000000000000000000000000000000000000000000000000008152600401610370929190610f1d565b60405180910390fd5b6103838282610867565b5050565b7f00000000000000000000000000000000000000000000000000000000000000003410156103e1576040517f74938f2700000000000000000000000000000000000000000000000000000000815260040160405180910390fd5b600060018111156103f5576103f46112d9565b5b600160149054906101000a900460ff166001811115610417576104166112d9565b5b1461044e576040517f1425571c00000000000000000000000000000000000000000000000000000000815260040160405180910390fd5b6000339080600181540180825580915050600190039060005260206000200160009091909190916101000a81548173ffffffffffffffffffffffffffffffffffffffff021916908373ffffffffffffffffffffffffffffffffffffffff1602179055503373ffffffffffffffffffffffffffffffffffffffff167f0805e1d667bddb8a95f0f09880cf94f403fb596ce79928d9f29b74203ba284d460405160405180910390a2565b6000600254905090565b600061051a60405180602001604052806000815250610767565b509050806105895747600080549050600160149054906101000a900460ff16600181111561054b5761054a6112d9565b5b6040517f584327aa00000000000000000000000000000000000000000000000000000000815260040161058093929190610fff565b60405180910390fd5b60018060146101000a81548160ff021916908360018111156105ae576105ad6112d9565b5b021790555060007f000000000000000000000000000000000000000000000000000000000000000073ffffffffffffffffffffffffffffffffffffffff16635d3b1d307f00000000000000000000000000000000000000000000000000000000000000007f000000000000000000000000000000000000000000000000000000000000000060037f000000000000000000000000000000000000000000000000000000000000000060016040518663ffffffff1660e01b8152600401610678959493929190610f76565b602060405180830381600087803b15801561069257600080fd5b505af11580156106a6573d6000803e3d6000fd5b505050506040513d601f19601f820116820180604052508101906106ca9190610d90565b9050807fcd6e45c8998311cab7e9d4385596cac867e20a0587194b954fa3a731c93ce78b60405160405180910390a250505050565b6000600160009054906101000a900473ffffffffffffffffffffffffffffffffffffffff16905090565b60007f0000000000000000000000000000000000000000000000000000000000000000905090565b60006001905090565b6000600361ffff16905090565b600060606000600160149054906101000a900460ff16600181111561078f5761078e6112d9565b5b600060018111156107a3576107a26112d9565b5b14905060007f0000000000000000000000000000000000000000000000000000000000000000600254426107d791906110fa565b119050600080600080549050119050600080471190508380156107f75750825b80156108005750815b80156108095750805b955050505050915091565b600080828154811061082957610828611308565b5b9060005260206000200160009054906101000a900473ffffffffffffffffffffffffffffffffffffffff169050919050565b60008080549050905090565b600080805490508260008151811061088257610881611308565b5b6020026020010151610894919061124a565b905060008082815481106108ab576108aa611308565b5b9060005260206000200160009054906101000a900473ffffffffffffffffffffffffffffffffffffffff16905080600160006101000a81548173ffffffffffffffffffffffffffffffffffffffff021916908373ffffffffffffffffffffffffffffffffffffffff1602179055506000600160146101000a81548160ff0219169083600181111561093f5761093e6112d9565b5b0217905550600067ffffffffffffffff81111561095f5761095e611337565b5b60405190808252806020026020018201604052801561098d5781602001602082028036833780820191505090505b50600090805190602001906109a3929190610a98565b504260028190555060008173ffffffffffffffffffffffffffffffffffffffff16476040516109d190610eed565b60006040518083038185875af1925050503d8060008114610a0e576040519150601f19603f3d011682016040523d82523d6000602084013e610a13565b606091505b5050905080610a4e576040517fa1d04b3900000000000000000000000000000000000000000000000000000000815260040160405180910390fd5b8173ffffffffffffffffffffffffffffffffffffffff167f5b690ec4a06fe979403046eaeea5b3ce38524683c3001f662c8b5a829632f7df60405160405180910390a25050505050565b828054828255906000526020600020908101928215610b11579160200282015b82811115610b105782518260006101000a81548173ffffffffffffffffffffffffffffffffffffffff021916908373ffffffffffffffffffffffffffffffffffffffff16021790555091602001919060010190610ab8565b5b509050610b1e9190610b22565b5090565b5b80821115610b3b576000816000905550600101610b23565b5090565b6000610b52610b4d84611076565b611051565b90508083825260208201905082856020860282011115610b7557610b74611370565b5b60005b85811015610ba55781610b8b8882610ca3565b845260208401935060208301925050600181019050610b78565b5050509392505050565b6000610bc2610bbd846110a2565b611051565b905082815260208101848484011115610bde57610bdd611375565b5b610be98482856111d7565b509392505050565b600082601f830112610c0657610c0561136b565b5b8135610c16848260208601610b3f565b91505092915050565b60008083601f840112610c3557610c3461136b565b5b8235905067ffffffffffffffff811115610c5257610c51611366565b5b602083019150836001820283011115610c6e57610c6d611370565b5b9250929050565b600082601f830112610c8a57610c8961136b565b5b8135610c9a848260208601610baf565b91505092915050565b600081359050610cb2816113ac565b92915050565b600081519050610cc7816113ac565b92915050565b60008060208385031215610ce457610ce361137f565b5b600083013567ffffffffffffffff811115610d0257610d0161137a565b5b610d0e85828601610c1f565b92509250509250929050565b600060208284031215610d3057610d2f61137f565b5b600082013567ffffffffffffffff811115610d4e57610d4d61137a565b5b610d5a84828501610c75565b91505092915050565b600060208284031215610d7957610d7861137f565b5b6000610d8784828501610ca3565b91505092915050565b600060208284031215610da657610da561137f565b5b6000610db484828501610cb8565b91505092915050565b60008060408385031215610dd457610dd361137f565b5b6000610de285828601610ca3565b925050602083013567ffffffffffffffff811115610e0357610e0261137a565b5b610e0f85828601610bf1565b9150509250929050565b610e228161112e565b82525050565b610e3181611140565b82525050565b610e408161114c565b82525050565b6000610e51826110d3565b610e5b81856110de565b9350610e6b8185602086016111e6565b610e7481611384565b840191505092915050565b610e88816111c5565b82525050565b6000610e9b6000836110ef565b9150610ea682611395565b600082019050919050565b610eba81611169565b82525050565b610ec981611197565b82525050565b610ed8816111a1565b82525050565b610ee7816111b1565b82525050565b6000610ef882610e8e565b9150819050919050565b6000602082019050610f176000830184610e19565b92915050565b6000604082019050610f326000830185610e19565b610f3f6020830184610e19565b9392505050565b6000604082019050610f5b6000830185610e28565b8181036020830152610f6d8184610e46565b90509392505050565b600060a082019050610f8b6000830188610e37565b610f986020830187610ede565b610fa56040830186610eb1565b610fb26060830185610ecf565b610fbf6080830184610ecf565b9695505050505050565b6000602082019050610fde6000830184610e7f565b92915050565b6000602082019050610ff96000830184610ec0565b92915050565b60006060820190506110146000830186610ec0565b6110216020830185610ec0565b61102e6040830184610ec0565b949350505050565b600060208201905061104b6000830184610ecf565b92915050565b600061105b61106c565b90506110678282611219565b919050565b6000604051905090565b600067ffffffffffffffff82111561109157611090611337565b5b602082029050602081019050919050565b600067ffffffffffffffff8211156110bd576110bc611337565b5b6110c682611384565b9050602081019050919050565b600081519050919050565b600082825260208201905092915050565b600081905092915050565b600061110582611197565b915061111083611197565b9250828210156111235761112261127b565b5b828203905092915050565b600061113982611177565b9050919050565b60008115159050919050565b6000819050919050565b600081905061116482611398565b919050565b600061ffff82169050919050565b600073ffffffffffffffffffffffffffffffffffffffff82169050919050565b6000819050919050565b600063ffffffff82169050919050565b600067ffffffffffffffff82169050919050565b60006111d082611156565b9050919050565b82818337600083830152505050565b60005b838110156112045780820151818401526020810190506111e9565b83811115611213576000848401525b50505050565b61122282611384565b810181811067ffffffffffffffff8211171561124157611240611337565b5b80604052505050565b600061125582611197565b915061126083611197565b9250826112705761126f6112aa565b5b828206905092915050565b7f4e487b7100000000000000000000000000000000000000000000000000000000600052601160045260246000fd5b7f4e487b7100000000000000000000000000000000000000000000000000000000600052601260045260246000fd5b7f4e487b7100000000000000000000000000000000000000000000000000000000600052602160045260246000fd5b7f4e487b7100000000000000000000000000000000000000000000000000000000600052603260045260246000fd5b7f4e487b7100000000000000000000000000000000000000000000000000000000600052604160045260246000fd5b600080fd5b600080fd5b600080fd5b600080fd5b600080fd5b600080fd5b6000601f19601f8301169050919050565b50565b600281106113a9576113a86112d9565b5b50565b6113b581611197565b81146113c057600080fd5b5056fea26469706673582212208a9f3d49ebc49e1d49652d7d6eaebc478d2c8c3d78bda6ec0639048bf234e41864736f6c63430008070033",
          "opcodes": "PUSH2 0x160 PUSH1 0x40 MSTORE CALLVALUE DUP1 ISZERO PUSH3 0x12 JUMPI PUSH1 0x0 DUP1 REVERT JUMPDEST POP PUSH1 0x40 MLOAD PUSH3 0x17D9 CODESIZE SUB DUP1 PUSH3 0x17D9 DUP4 CODECOPY DUP2 DUP2 ADD PUSH1 0x40 MSTORE DUP2 ADD SWAP1 PUSH3 0x38 SWAP2 SWAP1 PUSH3 0x1AD JUMP JUMPDEST DUP6 DUP1 PUSH20 0xFFFFFFFFFFFFFFFFFFFFFFFFFFFFFFFFFFFFFFFF AND PUSH1 0x80 DUP2 PUSH20 0xFFFFFFFFFFFFFFFFFFFFFFFFFFFFFFFFFFFFFFFF AND PUSH1 0x60 SHL DUP2 MSTORE POP POP POP DUP5 PUSH1 0xA0 DUP2 DUP2 MSTORE POP POP DUP6 PUSH20 0xFFFFFFFFFFFFFFFFFFFFFFFFFFFFFFFFFFFFFFFF AND PUSH1 0xC0 DUP2 PUSH20 0xFFFFFFFFFFFFFFFFFFFFFFFFFFFFFFFFFFFFFFFF AND PUSH1 0x60 SHL DUP2 MSTORE POP POP DUP4 PUSH1 0xE0 DUP2 DUP2 MSTORE POP POP DUP3 PUSH8 0xFFFFFFFFFFFFFFFF AND PUSH2 0x100 DUP2 PUSH8 0xFFFFFFFFFFFFFFFF AND PUSH1 0xC0 SHL DUP2 MSTORE POP POP DUP2 PUSH4 0xFFFFFFFF AND PUSH2 0x120 DUP2 PUSH4 0xFFFFFFFF AND PUSH1 0xE0 SHL DUP2 MSTORE POP POP PUSH1 0x0 PUSH1 0x1 PUSH1 0x14 PUSH2 0x100 EXP DUP2 SLOAD DUP2 PUSH1 0xFF MUL NOT AND SWAP1 DUP4 PUSH1 0x1 DUP2 GT ISZERO PUSH3 0x119 JUMPI PUSH3 0x118 PUSH3 0x2B5 JUMP JUMPDEST JUMPDEST MUL OR SWAP1 SSTORE POP TIMESTAMP PUSH1 0x2 DUP2 SWAP1 SSTORE POP DUP1 PUSH2 0x140 DUP2 DUP2 MSTORE POP POP POP POP POP POP POP POP PUSH3 0x36B JUMP JUMPDEST PUSH1 0x0 DUP2 MLOAD SWAP1 POP PUSH3 0x14B DUP2 PUSH3 0x2E9 JUMP JUMPDEST SWAP3 SWAP2 POP POP JUMP JUMPDEST PUSH1 0x0 DUP2 MLOAD SWAP1 POP PUSH3 0x162 DUP2 PUSH3 0x303 JUMP JUMPDEST SWAP3 SWAP2 POP POP JUMP JUMPDEST PUSH1 0x0 DUP2 MLOAD SWAP1 POP PUSH3 0x179 DUP2 PUSH3 0x31D JUMP JUMPDEST SWAP3 SWAP2 POP POP JUMP JUMPDEST PUSH1 0x0 DUP2 MLOAD SWAP1 POP PUSH3 0x190 DUP2 PUSH3 0x337 JUMP JUMPDEST SWAP3 SWAP2 POP POP JUMP JUMPDEST PUSH1 0x0 DUP2 MLOAD SWAP1 POP PUSH3 0x1A7 DUP2 PUSH3 0x351 JUMP JUMPDEST SWAP3 SWAP2 POP POP JUMP JUMPDEST PUSH1 0x0 DUP1 PUSH1 0x0 DUP1 PUSH1 0x0 DUP1 PUSH1 0xC0 DUP8 DUP10 SUB SLT ISZERO PUSH3 0x1CD JUMPI PUSH3 0x1CC PUSH3 0x2E4 JUMP JUMPDEST JUMPDEST PUSH1 0x0 PUSH3 0x1DD DUP10 DUP3 DUP11 ADD PUSH3 0x13A JUMP JUMPDEST SWAP7 POP POP PUSH1 0x20 PUSH3 0x1F0 DUP10 DUP3 DUP11 ADD PUSH3 0x168 JUMP JUMPDEST SWAP6 POP POP PUSH1 0x40 PUSH3 0x203 DUP10 DUP3 DUP11 ADD PUSH3 0x151 JUMP JUMPDEST SWAP5 POP POP PUSH1 0x60 PUSH3 0x216 DUP10 DUP3 DUP11 ADD PUSH3 0x196 JUMP JUMPDEST SWAP4 POP POP PUSH1 0x80 PUSH3 0x229 DUP10 DUP3 DUP11 ADD PUSH3 0x17F JUMP JUMPDEST SWAP3 POP POP PUSH1 0xA0 PUSH3 0x23C DUP10 DUP3 DUP11 ADD PUSH3 0x168 JUMP JUMPDEST SWAP2 POP POP SWAP3 SWAP6 POP SWAP3 SWAP6 POP SWAP3 SWAP6 JUMP JUMPDEST PUSH1 0x0 PUSH3 0x256 DUP3 PUSH3 0x267 JUMP JUMPDEST SWAP1 POP SWAP2 SWAP1 POP JUMP JUMPDEST PUSH1 0x0 DUP2 SWAP1 POP SWAP2 SWAP1 POP JUMP JUMPDEST PUSH1 0x0 PUSH20 0xFFFFFFFFFFFFFFFFFFFFFFFFFFFFFFFFFFFFFFFF DUP3 AND SWAP1 POP SWAP2 SWAP1 POP JUMP JUMPDEST PUSH1 0x0 DUP2 SWAP1 POP SWAP2 SWAP1 POP JUMP JUMPDEST PUSH1 0x0 PUSH4 0xFFFFFFFF DUP3 AND SWAP1 POP SWAP2 SWAP1 POP JUMP JUMPDEST PUSH1 0x0 PUSH8 0xFFFFFFFFFFFFFFFF DUP3 AND SWAP1 POP SWAP2 SWAP1 POP JUMP JUMPDEST PUSH32 0x4E487B7100000000000000000000000000000000000000000000000000000000 PUSH1 0x0 MSTORE PUSH1 0x21 PUSH1 0x4 MSTORE PUSH1 0x24 PUSH1 0x0 REVERT JUMPDEST PUSH1 0x0 DUP1 REVERT JUMPDEST PUSH3 0x2F4 DUP2 PUSH3 0x249 JUMP JUMPDEST DUP2 EQ PUSH3 0x300 JUMPI PUSH1 0x0 DUP1 REVERT JUMPDEST POP JUMP JUMPDEST PUSH3 0x30E DUP2 PUSH3 0x25D JUMP JUMPDEST DUP2 EQ PUSH3 0x31A JUMPI PUSH1 0x0 DUP1 REVERT JUMPDEST POP JUMP JUMPDEST PUSH3 0x328 DUP2 PUSH3 0x287 JUMP JUMPDEST DUP2 EQ PUSH3 0x334 JUMPI PUSH1 0x0 DUP1 REVERT JUMPDEST POP JUMP JUMPDEST PUSH3 0x342 DUP2 PUSH3 0x291 JUMP JUMPDEST DUP2 EQ PUSH3 0x34E JUMPI PUSH1 0x0 DUP1 REVERT JUMPDEST POP JUMP JUMPDEST PUSH3 0x35C DUP2 PUSH3 0x2A1 JUMP JUMPDEST DUP2 EQ PUSH3 0x368 JUMPI PUSH1 0x0 DUP1 REVERT JUMPDEST POP JUMP JUMPDEST PUSH1 0x80 MLOAD PUSH1 0x60 SHR PUSH1 0xA0 MLOAD PUSH1 0xC0 MLOAD PUSH1 0x60 SHR PUSH1 0xE0 MLOAD PUSH2 0x100 MLOAD PUSH1 0xC0 SHR PUSH2 0x120 MLOAD PUSH1 0xE0 SHR PUSH2 0x140 MLOAD PUSH2 0x13F9 PUSH3 0x3E0 PUSH1 0x0 CODECOPY PUSH1 0x0 PUSH2 0x7AA ADD MSTORE PUSH1 0x0 PUSH2 0x637 ADD MSTORE PUSH1 0x0 PUSH2 0x614 ADD MSTORE PUSH1 0x0 PUSH2 0x5F3 ADD MSTORE PUSH1 0x0 PUSH2 0x5B7 ADD MSTORE PUSH1 0x0 DUP2 DUP2 PUSH2 0x389 ADD MSTORE PUSH2 0x72D ADD MSTORE PUSH1 0x0 DUP2 DUP2 PUSH2 0x2C9 ADD MSTORE PUSH2 0x31D ADD MSTORE PUSH2 0x13F9 PUSH1 0x0 RETURN INVALID PUSH1 0x80 PUSH1 0x40 MSTORE PUSH1 0x4 CALLDATASIZE LT PUSH2 0xA7 JUMPI PUSH1 0x0 CALLDATALOAD PUSH1 0xE0 SHR DUP1 PUSH4 0x535BF50F GT PUSH2 0x64 JUMPI DUP1 PUSH4 0x535BF50F EQ PUSH2 0x189 JUMPI DUP1 PUSH4 0x53A2C19A EQ PUSH2 0x1B4 JUMPI DUP1 PUSH4 0x5F1B0FD8 EQ PUSH2 0x1DF JUMPI DUP1 PUSH4 0x6E04FF0D EQ PUSH2 0x20A JUMPI DUP1 PUSH4 0xE55AE4E8 EQ PUSH2 0x248 JUMPI DUP1 PUSH4 0xFD6673F5 EQ PUSH2 0x285 JUMPI PUSH2 0xA7 JUMP JUMPDEST DUP1 PUSH4 0x115CBAF5 EQ PUSH2 0xAC JUMPI DUP1 PUSH4 0x1FE543E3 EQ PUSH2 0xD7 JUMPI DUP1 PUSH4 0x2CFCC539 EQ PUSH2 0x100 JUMPI DUP1 PUSH4 0x320229EB EQ PUSH2 0x10A JUMPI DUP1 PUSH4 0x4585E33B EQ PUSH2 0x135 JUMPI DUP1 PUSH4 0x473F1DDC EQ PUSH2 0x15E JUMPI JUMPDEST PUSH1 0x0 DUP1 REVERT JUMPDEST CALLVALUE DUP1 ISZERO PUSH2 0xB8 JUMPI PUSH1 0x0 DUP1 REVERT JUMPDEST POP PUSH2 0xC1 PUSH2 0x2B0 JUMP JUMPDEST PUSH1 0x40 MLOAD PUSH2 0xCE SWAP2 SWAP1 PUSH2 0xFC9 JUMP JUMPDEST PUSH1 0x40 MLOAD DUP1 SWAP2 SUB SWAP1 RETURN JUMPDEST CALLVALUE DUP1 ISZERO PUSH2 0xE3 JUMPI PUSH1 0x0 DUP1 REVERT JUMPDEST POP PUSH2 0xFE PUSH1 0x4 DUP1 CALLDATASIZE SUB DUP2 ADD SWAP1 PUSH2 0xF9 SWAP2 SWAP1 PUSH2 0xDBD JUMP JUMPDEST PUSH2 0x2C7 JUMP JUMPDEST STOP JUMPDEST PUSH2 0x108 PUSH2 0x387 JUMP JUMPDEST STOP JUMPDEST CALLVALUE DUP1 ISZERO PUSH2 0x116 JUMPI PUSH1 0x0 DUP1 REVERT JUMPDEST POP PUSH2 0x11F PUSH2 0x4F6 JUMP JUMPDEST PUSH1 0x40 MLOAD PUSH2 0x12C SWAP2 SWAP1 PUSH2 0xFE4 JUMP JUMPDEST PUSH1 0x40 MLOAD DUP1 SWAP2 SUB SWAP1 RETURN JUMPDEST CALLVALUE DUP1 ISZERO PUSH2 0x141 JUMPI PUSH1 0x0 DUP1 REVERT JUMPDEST POP PUSH2 0x15C PUSH1 0x4 DUP1 CALLDATASIZE SUB DUP2 ADD SWAP1 PUSH2 0x157 SWAP2 SWAP1 PUSH2 0xCCD JUMP JUMPDEST PUSH2 0x500 JUMP JUMPDEST STOP JUMPDEST CALLVALUE DUP1 ISZERO PUSH2 0x16A JUMPI PUSH1 0x0 DUP1 REVERT JUMPDEST POP PUSH2 0x173 PUSH2 0x6FF JUMP JUMPDEST PUSH1 0x40 MLOAD PUSH2 0x180 SWAP2 SWAP1 PUSH2 0xF02 JUMP JUMPDEST PUSH1 0x40 MLOAD DUP1 SWAP2 SUB SWAP1 RETURN JUMPDEST CALLVALUE DUP1 ISZERO PUSH2 0x195 JUMPI PUSH1 0x0 DUP1 REVERT JUMPDEST POP PUSH2 0x19E PUSH2 0x729 JUMP JUMPDEST PUSH1 0x40 MLOAD PUSH2 0x1AB SWAP2 SWAP1 PUSH2 0xFE4 JUMP JUMPDEST PUSH1 0x40 MLOAD DUP1 SWAP2 SUB SWAP1 RETURN JUMPDEST CALLVALUE DUP1 ISZERO PUSH2 0x1C0 JUMPI PUSH1 0x0 DUP1 REVERT JUMPDEST POP PUSH2 0x1C9 PUSH2 0x751 JUMP JUMPDEST PUSH1 0x40 MLOAD PUSH2 0x1D6 SWAP2 SWAP1 PUSH2 0x1036 JUMP JUMPDEST PUSH1 0x40 MLOAD DUP1 SWAP2 SUB SWAP1 RETURN JUMPDEST CALLVALUE DUP1 ISZERO PUSH2 0x1EB JUMPI PUSH1 0x0 DUP1 REVERT JUMPDEST POP PUSH2 0x1F4 PUSH2 0x75A JUMP JUMPDEST PUSH1 0x40 MLOAD PUSH2 0x201 SWAP2 SWAP1 PUSH2 0xFE4 JUMP JUMPDEST PUSH1 0x40 MLOAD DUP1 SWAP2 SUB SWAP1 RETURN JUMPDEST CALLVALUE DUP1 ISZERO PUSH2 0x216 JUMPI PUSH1 0x0 DUP1 REVERT JUMPDEST POP PUSH2 0x231 PUSH1 0x4 DUP1 CALLDATASIZE SUB DUP2 ADD SWAP1 PUSH2 0x22C SWAP2 SWAP1 PUSH2 0xD1A JUMP JUMPDEST PUSH2 0x767 JUMP JUMPDEST PUSH1 0x40 MLOAD PUSH2 0x23F SWAP3 SWAP2 SWAP1 PUSH2 0xF46 JUMP JUMPDEST PUSH1 0x40 MLOAD DUP1 SWAP2 SUB SWAP1 RETURN JUMPDEST CALLVALUE DUP1 ISZERO PUSH2 0x254 JUMPI PUSH1 0x0 DUP1 REVERT JUMPDEST POP PUSH2 0x26F PUSH1 0x4 DUP1 CALLDATASIZE SUB DUP2 ADD SWAP1 PUSH2 0x26A SWAP2 SWAP1 PUSH2 0xD63 JUMP JUMPDEST PUSH2 0x814 JUMP JUMPDEST PUSH1 0x40 MLOAD PUSH2 0x27C SWAP2 SWAP1 PUSH2 0xF02 JUMP JUMPDEST PUSH1 0x40 MLOAD DUP1 SWAP2 SUB SWAP1 RETURN JUMPDEST CALLVALUE DUP1 ISZERO PUSH2 0x291 JUMPI PUSH1 0x0 DUP1 REVERT JUMPDEST POP PUSH2 0x29A PUSH2 0x85B JUMP JUMPDEST PUSH1 0x40 MLOAD PUSH2 0x2A7 SWAP2 SWAP1 PUSH2 0xFE4 JUMP JUMPDEST PUSH1 0x40 MLOAD DUP1 SWAP2 SUB SWAP1 RETURN JUMPDEST PUSH1 0x0 PUSH1 0x1 PUSH1 0x14 SWAP1 SLOAD SWAP1 PUSH2 0x100 EXP SWAP1 DIV PUSH1 0xFF AND SWAP1 POP SWAP1 JUMP JUMPDEST PUSH32 0x0 PUSH20 0xFFFFFFFFFFFFFFFFFFFFFFFFFFFFFFFFFFFFFFFF AND CALLER PUSH20 0xFFFFFFFFFFFFFFFFFFFFFFFFFFFFFFFFFFFFFFFF AND EQ PUSH2 0x379 JUMPI CALLER PUSH32 0x0 PUSH1 0x40 MLOAD PUSH32 0x1CF993F400000000000000000000000000000000000000000000000000000000 DUP2 MSTORE PUSH1 0x4 ADD PUSH2 0x370 SWAP3 SWAP2 SWAP1 PUSH2 0xF1D JUMP JUMPDEST PUSH1 0x40 MLOAD DUP1 SWAP2 SUB SWAP1 REVERT JUMPDEST PUSH2 0x383 DUP3 DUP3 PUSH2 0x867 JUMP JUMPDEST POP POP JUMP JUMPDEST PUSH32 0x0 CALLVALUE LT ISZERO PUSH2 0x3E1 JUMPI PUSH1 0x40 MLOAD PUSH32 0x74938F2700000000000000000000000000000000000000000000000000000000 DUP2 MSTORE PUSH1 0x4 ADD PUSH1 0x40 MLOAD DUP1 SWAP2 SUB SWAP1 REVERT JUMPDEST PUSH1 0x0 PUSH1 0x1 DUP2 GT ISZERO PUSH2 0x3F5 JUMPI PUSH2 0x3F4 PUSH2 0x12D9 JUMP JUMPDEST JUMPDEST PUSH1 0x1 PUSH1 0x14 SWAP1 SLOAD SWAP1 PUSH2 0x100 EXP SWAP1 DIV PUSH1 0xFF AND PUSH1 0x1 DUP2 GT ISZERO PUSH2 0x417 JUMPI PUSH2 0x416 PUSH2 0x12D9 JUMP JUMPDEST JUMPDEST EQ PUSH2 0x44E JUMPI PUSH1 0x40 MLOAD PUSH32 0x1425571C00000000000000000000000000000000000000000000000000000000 DUP2 MSTORE PUSH1 0x4 ADD PUSH1 0x40 MLOAD DUP1 SWAP2 SUB SWAP1 REVERT JUMPDEST PUSH1 0x0 CALLER SWAP1 DUP1 PUSH1 0x1 DUP2 SLOAD ADD DUP1 DUP3 SSTORE DUP1 SWAP2 POP POP PUSH1 0x1 SWAP1 SUB SWAP1 PUSH1 0x0 MSTORE PUSH1 0x20 PUSH1 0x0 KECCAK256 ADD PUSH1 0x0 SWAP1 SWAP2 SWAP1 SWAP2 SWAP1 SWAP2 PUSH2 0x100 EXP DUP2 SLOAD DUP2 PUSH20 0xFFFFFFFFFFFFFFFFFFFFFFFFFFFFFFFFFFFFFFFF MUL NOT AND SWAP1 DUP4 PUSH20 0xFFFFFFFFFFFFFFFFFFFFFFFFFFFFFFFFFFFFFFFF AND MUL OR SWAP1 SSTORE POP CALLER PUSH20 0xFFFFFFFFFFFFFFFFFFFFFFFFFFFFFFFFFFFFFFFF AND PUSH32 0x805E1D667BDDB8A95F0F09880CF94F403FB596CE79928D9F29B74203BA284D4 PUSH1 0x40 MLOAD PUSH1 0x40 MLOAD DUP1 SWAP2 SUB SWAP1 LOG2 JUMP JUMPDEST PUSH1 0x0 PUSH1 0x2 SLOAD SWAP1 POP SWAP1 JUMP JUMPDEST PUSH1 0x0 PUSH2 0x51A PUSH1 0x40 MLOAD DUP1 PUSH1 0x20 ADD PUSH1 0x40 MSTORE DUP1 PUSH1 0x0 DUP2 MSTORE POP PUSH2 0x767 JUMP JUMPDEST POP SWAP1 POP DUP1 PUSH2 0x589 JUMPI SELFBALANCE PUSH1 0x0 DUP1 SLOAD SWAP1 POP PUSH1 0x1 PUSH1 0x14 SWAP1 SLOAD SWAP1 PUSH2 0x100 EXP SWAP1 DIV PUSH1 0xFF AND PUSH1 0x1 DUP2 GT ISZERO PUSH2 0x54B JUMPI PUSH2 0x54A PUSH2 0x12D9 JUMP JUMPDEST JUMPDEST PUSH1 0x40 MLOAD PUSH32 0x584327AA00000000000000000000000000000000000000000000000000000000 DUP2 MSTORE PUSH1 0x4 ADD PUSH2 0x580 SWAP4 SWAP3 SWAP2 SWAP1 PUSH2 0xFFF JUMP JUMPDEST PUSH1 0x40 MLOAD DUP1 SWAP2 SUB SWAP1 REVERT JUMPDEST PUSH1 0x1 DUP1 PUSH1 0x14 PUSH2 0x100 EXP DUP2 SLOAD DUP2 PUSH1 0xFF MUL NOT AND SWAP1 DUP4 PUSH1 0x1 DUP2 GT ISZERO PUSH2 0x5AE JUMPI PUSH2 0x5AD PUSH2 0x12D9 JUMP JUMPDEST JUMPDEST MUL OR SWAP1 SSTORE POP PUSH1 0x0 PUSH32 0x0 PUSH20 0xFFFFFFFFFFFFFFFFFFFFFFFFFFFFFFFFFFFFFFFF AND PUSH4 0x5D3B1D30 PUSH32 0x0 PUSH32 0x0 PUSH1 0x3 PUSH32 0x0 PUSH1 0x1 PUSH1 0x40 MLOAD DUP7 PUSH4 0xFFFFFFFF AND PUSH1 0xE0 SHL DUP2 MSTORE PUSH1 0x4 ADD PUSH2 0x678 SWAP6 SWAP5 SWAP4 SWAP3 SWAP2 SWAP1 PUSH2 0xF76 JUMP JUMPDEST PUSH1 0x20 PUSH1 0x40 MLOAD DUP1 DUP4 SUB DUP2 PUSH1 0x0 DUP8 DUP1 EXTCODESIZE ISZERO DUP1 ISZERO PUSH2 0x692 JUMPI PUSH1 0x0 DUP1 REVERT JUMPDEST POP GAS CALL ISZERO DUP1 ISZERO PUSH2 0x6A6 JUMPI RETURNDATASIZE PUSH1 0x0 DUP1 RETURNDATACOPY RETURNDATASIZE PUSH1 0x0 REVERT JUMPDEST POP POP POP POP PUSH1 0x40 MLOAD RETURNDATASIZE PUSH1 0x1F NOT PUSH1 0x1F DUP3 ADD AND DUP3 ADD DUP1 PUSH1 0x40 MSTORE POP DUP2 ADD SWAP1 PUSH2 0x6CA SWAP2 SWAP1 PUSH2 0xD90 JUMP JUMPDEST SWAP1 POP DUP1 PUSH32 0xCD6E45C8998311CAB7E9D4385596CAC867E20A0587194B954FA3A731C93CE78B PUSH1 0x40 MLOAD PUSH1 0x40 MLOAD DUP1 SWAP2 SUB SWAP1 LOG2 POP POP POP POP JUMP JUMPDEST PUSH1 0x0 PUSH1 0x1 PUSH1 0x0 SWAP1 SLOAD SWAP1 PUSH2 0x100 EXP SWAP1 DIV PUSH20 0xFFFFFFFFFFFFFFFFFFFFFFFFFFFFFFFFFFFFFFFF AND SWAP1 POP SWAP1 JUMP JUMPDEST PUSH1 0x0 PUSH32 0x0 SWAP1 POP SWAP1 JUMP JUMPDEST PUSH1 0x0 PUSH1 0x1 SWAP1 POP SWAP1 JUMP JUMPDEST PUSH1 0x0 PUSH1 0x3 PUSH2 0xFFFF AND SWAP1 POP SWAP1 JUMP JUMPDEST PUSH1 0x0 PUSH1 0x60 PUSH1 0x0 PUSH1 0x1 PUSH1 0x14 SWAP1 SLOAD SWAP1 PUSH2 0x100 EXP SWAP1 DIV PUSH1 0xFF AND PUSH1 0x1 DUP2 GT ISZERO PUSH2 0x78F JUMPI PUSH2 0x78E PUSH2 0x12D9 JUMP JUMPDEST JUMPDEST PUSH1 0x0 PUSH1 0x1 DUP2 GT ISZERO PUSH2 0x7A3 JUMPI PUSH2 0x7A2 PUSH2 0x12D9 JUMP JUMPDEST JUMPDEST EQ SWAP1 POP PUSH1 0x0 PUSH32 0x0 PUSH1 0x2 SLOAD TIMESTAMP PUSH2 0x7D7 SWAP2 SWAP1 PUSH2 0x10FA JUMP JUMPDEST GT SWAP1 POP PUSH1 0x0 DUP1 PUSH1 0x0 DUP1 SLOAD SWAP1 POP GT SWAP1 POP PUSH1 0x0 DUP1 SELFBALANCE GT SWAP1 POP DUP4 DUP1 ISZERO PUSH2 0x7F7 JUMPI POP DUP3 JUMPDEST DUP1 ISZERO PUSH2 0x800 JUMPI POP DUP2 JUMPDEST DUP1 ISZERO PUSH2 0x809 JUMPI POP DUP1 JUMPDEST SWAP6 POP POP POP POP POP SWAP2 POP SWAP2 JUMP JUMPDEST PUSH1 0x0 DUP1 DUP3 DUP2 SLOAD DUP2 LT PUSH2 0x829 JUMPI PUSH2 0x828 PUSH2 0x1308 JUMP JUMPDEST JUMPDEST SWAP1 PUSH1 0x0 MSTORE PUSH1 0x20 PUSH1 0x0 KECCAK256 ADD PUSH1 0x0 SWAP1 SLOAD SWAP1 PUSH2 0x100 EXP SWAP1 DIV PUSH20 0xFFFFFFFFFFFFFFFFFFFFFFFFFFFFFFFFFFFFFFFF AND SWAP1 POP SWAP2 SWAP1 POP JUMP JUMPDEST PUSH1 0x0 DUP1 DUP1 SLOAD SWAP1 POP SWAP1 POP SWAP1 JUMP JUMPDEST PUSH1 0x0 DUP1 DUP1 SLOAD SWAP1 POP DUP3 PUSH1 0x0 DUP2 MLOAD DUP2 LT PUSH2 0x882 JUMPI PUSH2 0x881 PUSH2 0x1308 JUMP JUMPDEST JUMPDEST PUSH1 0x20 MUL PUSH1 0x20 ADD ADD MLOAD PUSH2 0x894 SWAP2 SWAP1 PUSH2 0x124A JUMP JUMPDEST SWAP1 POP PUSH1 0x0 DUP1 DUP3 DUP2 SLOAD DUP2 LT PUSH2 0x8AB JUMPI PUSH2 0x8AA PUSH2 0x1308 JUMP JUMPDEST JUMPDEST SWAP1 PUSH1 0x0 MSTORE PUSH1 0x20 PUSH1 0x0 KECCAK256 ADD PUSH1 0x0 SWAP1 SLOAD SWAP1 PUSH2 0x100 EXP SWAP1 DIV PUSH20 0xFFFFFFFFFFFFFFFFFFFFFFFFFFFFFFFFFFFFFFFF AND SWAP1 POP DUP1 PUSH1 0x1 PUSH1 0x0 PUSH2 0x100 EXP DUP2 SLOAD DUP2 PUSH20 0xFFFFFFFFFFFFFFFFFFFFFFFFFFFFFFFFFFFFFFFF MUL NOT AND SWAP1 DUP4 PUSH20 0xFFFFFFFFFFFFFFFFFFFFFFFFFFFFFFFFFFFFFFFF AND MUL OR SWAP1 SSTORE POP PUSH1 0x0 PUSH1 0x1 PUSH1 0x14 PUSH2 0x100 EXP DUP2 SLOAD DUP2 PUSH1 0xFF MUL NOT AND SWAP1 DUP4 PUSH1 0x1 DUP2 GT ISZERO PUSH2 0x93F JUMPI PUSH2 0x93E PUSH2 0x12D9 JUMP JUMPDEST JUMPDEST MUL OR SWAP1 SSTORE POP PUSH1 0x0 PUSH8 0xFFFFFFFFFFFFFFFF DUP2 GT ISZERO PUSH2 0x95F JUMPI PUSH2 0x95E PUSH2 0x1337 JUMP JUMPDEST JUMPDEST PUSH1 0x40 MLOAD SWAP1 DUP1 DUP3 MSTORE DUP1 PUSH1 0x20 MUL PUSH1 0x20 ADD DUP3 ADD PUSH1 0x40 MSTORE DUP1 ISZERO PUSH2 0x98D JUMPI DUP2 PUSH1 0x20 ADD PUSH1 0x20 DUP3 MUL DUP1 CALLDATASIZE DUP4 CALLDATACOPY DUP1 DUP3 ADD SWAP2 POP POP SWAP1 POP JUMPDEST POP PUSH1 0x0 SWAP1 DUP1 MLOAD SWAP1 PUSH1 0x20 ADD SWAP1 PUSH2 0x9A3 SWAP3 SWAP2 SWAP1 PUSH2 0xA98 JUMP JUMPDEST POP TIMESTAMP PUSH1 0x2 DUP2 SWAP1 SSTORE POP PUSH1 0x0 DUP2 PUSH20 0xFFFFFFFFFFFFFFFFFFFFFFFFFFFFFFFFFFFFFFFF AND SELFBALANCE PUSH1 0x40 MLOAD PUSH2 0x9D1 SWAP1 PUSH2 0xEED JUMP JUMPDEST PUSH1 0x0 PUSH1 0x40 MLOAD DUP1 DUP4 SUB DUP2 DUP6 DUP8 GAS CALL SWAP3 POP POP POP RETURNDATASIZE DUP1 PUSH1 0x0 DUP2 EQ PUSH2 0xA0E JUMPI PUSH1 0x40 MLOAD SWAP2 POP PUSH1 0x1F NOT PUSH1 0x3F RETURNDATASIZE ADD AND DUP3 ADD PUSH1 0x40 MSTORE RETURNDATASIZE DUP3 MSTORE RETURNDATASIZE PUSH1 0x0 PUSH1 0x20 DUP5 ADD RETURNDATACOPY PUSH2 0xA13 JUMP JUMPDEST PUSH1 0x60 SWAP2 POP JUMPDEST POP POP SWAP1 POP DUP1 PUSH2 0xA4E JUMPI PUSH1 0x40 MLOAD PUSH32 0xA1D04B3900000000000000000000000000000000000000000000000000000000 DUP2 MSTORE PUSH1 0x4 ADD PUSH1 0x40 MLOAD DUP1 SWAP2 SUB SWAP1 REVERT JUMPDEST DUP2 PUSH20 0xFFFFFFFFFFFFFFFFFFFFFFFFFFFFFFFFFFFFFFFF AND PUSH32 0x5B690EC4A06FE979403046EAEEA5B3CE38524683C3001F662C8B5A829632F7DF PUSH1 0x40 MLOAD PUSH1 0x40 MLOAD DUP1 SWAP2 SUB SWAP1 LOG2 POP POP POP POP POP JUMP JUMPDEST DUP3 DUP1 SLOAD DUP3 DUP3 SSTORE SWAP1 PUSH1 0x0 MSTORE PUSH1 0x20 PUSH1 0x0 KECCAK256 SWAP1 DUP2 ADD SWAP3 DUP3 ISZERO PUSH2 0xB11 JUMPI SWAP2 PUSH1 0x20 MUL DUP3 ADD JUMPDEST DUP3 DUP2 GT ISZERO PUSH2 0xB10 JUMPI DUP3 MLOAD DUP3 PUSH1 0x0 PUSH2 0x100 EXP DUP2 SLOAD DUP2 PUSH20 0xFFFFFFFFFFFFFFFFFFFFFFFFFFFFFFFFFFFFFFFF MUL NOT AND SWAP1 DUP4 PUSH20 0xFFFFFFFFFFFFFFFFFFFFFFFFFFFFFFFFFFFFFFFF AND MUL OR SWAP1 SSTORE POP SWAP2 PUSH1 0x20 ADD SWAP2 SWAP1 PUSH1 0x1 ADD SWAP1 PUSH2 0xAB8 JUMP JUMPDEST JUMPDEST POP SWAP1 POP PUSH2 0xB1E SWAP2 SWAP1 PUSH2 0xB22 JUMP JUMPDEST POP SWAP1 JUMP JUMPDEST JUMPDEST DUP1 DUP3 GT ISZERO PUSH2 0xB3B JUMPI PUSH1 0x0 DUP2 PUSH1 0x0 SWAP1 SSTORE POP PUSH1 0x1 ADD PUSH2 0xB23 JUMP JUMPDEST POP SWAP1 JUMP JUMPDEST PUSH1 0x0 PUSH2 0xB52 PUSH2 0xB4D DUP5 PUSH2 0x1076 JUMP JUMPDEST PUSH2 0x1051 JUMP JUMPDEST SWAP1 POP DUP1 DUP4 DUP3 MSTORE PUSH1 0x20 DUP3 ADD SWAP1 POP DUP3 DUP6 PUSH1 0x20 DUP7 MUL DUP3 ADD GT ISZERO PUSH2 0xB75 JUMPI PUSH2 0xB74 PUSH2 0x1370 JUMP JUMPDEST JUMPDEST PUSH1 0x0 JUMPDEST DUP6 DUP2 LT ISZERO PUSH2 0xBA5 JUMPI DUP2 PUSH2 0xB8B DUP9 DUP3 PUSH2 0xCA3 JUMP JUMPDEST DUP5 MSTORE PUSH1 0x20 DUP5 ADD SWAP4 POP PUSH1 0x20 DUP4 ADD SWAP3 POP POP PUSH1 0x1 DUP2 ADD SWAP1 POP PUSH2 0xB78 JUMP JUMPDEST POP POP POP SWAP4 SWAP3 POP POP POP JUMP JUMPDEST PUSH1 0x0 PUSH2 0xBC2 PUSH2 0xBBD DUP5 PUSH2 0x10A2 JUMP JUMPDEST PUSH2 0x1051 JUMP JUMPDEST SWAP1 POP DUP3 DUP2 MSTORE PUSH1 0x20 DUP2 ADD DUP5 DUP5 DUP5 ADD GT ISZERO PUSH2 0xBDE JUMPI PUSH2 0xBDD PUSH2 0x1375 JUMP JUMPDEST JUMPDEST PUSH2 0xBE9 DUP5 DUP3 DUP6 PUSH2 0x11D7 JUMP JUMPDEST POP SWAP4 SWAP3 POP POP POP JUMP JUMPDEST PUSH1 0x0 DUP3 PUSH1 0x1F DUP4 ADD SLT PUSH2 0xC06 JUMPI PUSH2 0xC05 PUSH2 0x136B JUMP JUMPDEST JUMPDEST DUP2 CALLDATALOAD PUSH2 0xC16 DUP5 DUP3 PUSH1 0x20 DUP7 ADD PUSH2 0xB3F JUMP JUMPDEST SWAP2 POP POP SWAP3 SWAP2 POP POP JUMP JUMPDEST PUSH1 0x0 DUP1 DUP4 PUSH1 0x1F DUP5 ADD SLT PUSH2 0xC35 JUMPI PUSH2 0xC34 PUSH2 0x136B JUMP JUMPDEST JUMPDEST DUP3 CALLDATALOAD SWAP1 POP PUSH8 0xFFFFFFFFFFFFFFFF DUP2 GT ISZERO PUSH2 0xC52 JUMPI PUSH2 0xC51 PUSH2 0x1366 JUMP JUMPDEST JUMPDEST PUSH1 0x20 DUP4 ADD SWAP2 POP DUP4 PUSH1 0x1 DUP3 MUL DUP4 ADD GT ISZERO PUSH2 0xC6E JUMPI PUSH2 0xC6D PUSH2 0x1370 JUMP JUMPDEST JUMPDEST SWAP3 POP SWAP3 SWAP1 POP JUMP JUMPDEST PUSH1 0x0 DUP3 PUSH1 0x1F DUP4 ADD SLT PUSH2 0xC8A JUMPI PUSH2 0xC89 PUSH2 0x136B JUMP JUMPDEST JUMPDEST DUP2 CALLDATALOAD PUSH2 0xC9A DUP5 DUP3 PUSH1 0x20 DUP7 ADD PUSH2 0xBAF JUMP JUMPDEST SWAP2 POP POP SWAP3 SWAP2 POP POP JUMP JUMPDEST PUSH1 0x0 DUP2 CALLDATALOAD SWAP1 POP PUSH2 0xCB2 DUP2 PUSH2 0x13AC JUMP JUMPDEST SWAP3 SWAP2 POP POP JUMP JUMPDEST PUSH1 0x0 DUP2 MLOAD SWAP1 POP PUSH2 0xCC7 DUP2 PUSH2 0x13AC JUMP JUMPDEST SWAP3 SWAP2 POP POP JUMP JUMPDEST PUSH1 0x0 DUP1 PUSH1 0x20 DUP4 DUP6 SUB SLT ISZERO PUSH2 0xCE4 JUMPI PUSH2 0xCE3 PUSH2 0x137F JUMP JUMPDEST JUMPDEST PUSH1 0x0 DUP4 ADD CALLDATALOAD PUSH8 0xFFFFFFFFFFFFFFFF DUP2 GT ISZERO PUSH2 0xD02 JUMPI PUSH2 0xD01 PUSH2 0x137A JUMP JUMPDEST JUMPDEST PUSH2 0xD0E DUP6 DUP3 DUP7 ADD PUSH2 0xC1F JUMP JUMPDEST SWAP3 POP SWAP3 POP POP SWAP3 POP SWAP3 SWAP1 POP JUMP JUMPDEST PUSH1 0x0 PUSH1 0x20 DUP3 DUP5 SUB SLT ISZERO PUSH2 0xD30 JUMPI PUSH2 0xD2F PUSH2 0x137F JUMP JUMPDEST JUMPDEST PUSH1 0x0 DUP3 ADD CALLDATALOAD PUSH8 0xFFFFFFFFFFFFFFFF DUP2 GT ISZERO PUSH2 0xD4E JUMPI PUSH2 0xD4D PUSH2 0x137A JUMP JUMPDEST JUMPDEST PUSH2 0xD5A DUP5 DUP3 DUP6 ADD PUSH2 0xC75 JUMP JUMPDEST SWAP2 POP POP SWAP3 SWAP2 POP POP JUMP JUMPDEST PUSH1 0x0 PUSH1 0x20 DUP3 DUP5 SUB SLT ISZERO PUSH2 0xD79 JUMPI PUSH2 0xD78 PUSH2 0x137F JUMP JUMPDEST JUMPDEST PUSH1 0x0 PUSH2 0xD87 DUP5 DUP3 DUP6 ADD PUSH2 0xCA3 JUMP JUMPDEST SWAP2 POP POP SWAP3 SWAP2 POP POP JUMP JUMPDEST PUSH1 0x0 PUSH1 0x20 DUP3 DUP5 SUB SLT ISZERO PUSH2 0xDA6 JUMPI PUSH2 0xDA5 PUSH2 0x137F JUMP JUMPDEST JUMPDEST PUSH1 0x0 PUSH2 0xDB4 DUP5 DUP3 DUP6 ADD PUSH2 0xCB8 JUMP JUMPDEST SWAP2 POP POP SWAP3 SWAP2 POP POP JUMP JUMPDEST PUSH1 0x0 DUP1 PUSH1 0x40 DUP4 DUP6 SUB SLT ISZERO PUSH2 0xDD4 JUMPI PUSH2 0xDD3 PUSH2 0x137F JUMP JUMPDEST JUMPDEST PUSH1 0x0 PUSH2 0xDE2 DUP6 DUP3 DUP7 ADD PUSH2 0xCA3 JUMP JUMPDEST SWAP3 POP POP PUSH1 0x20 DUP4 ADD CALLDATALOAD PUSH8 0xFFFFFFFFFFFFFFFF DUP2 GT ISZERO PUSH2 0xE03 JUMPI PUSH2 0xE02 PUSH2 0x137A JUMP JUMPDEST JUMPDEST PUSH2 0xE0F DUP6 DUP3 DUP7 ADD PUSH2 0xBF1 JUMP JUMPDEST SWAP2 POP POP SWAP3 POP SWAP3 SWAP1 POP JUMP JUMPDEST PUSH2 0xE22 DUP2 PUSH2 0x112E JUMP JUMPDEST DUP3 MSTORE POP POP JUMP JUMPDEST PUSH2 0xE31 DUP2 PUSH2 0x1140 JUMP JUMPDEST DUP3 MSTORE POP POP JUMP JUMPDEST PUSH2 0xE40 DUP2 PUSH2 0x114C JUMP JUMPDEST DUP3 MSTORE POP POP JUMP JUMPDEST PUSH1 0x0 PUSH2 0xE51 DUP3 PUSH2 0x10D3 JUMP JUMPDEST PUSH2 0xE5B DUP2 DUP6 PUSH2 0x10DE JUMP JUMPDEST SWAP4 POP PUSH2 0xE6B DUP2 DUP6 PUSH1 0x20 DUP7 ADD PUSH2 0x11E6 JUMP JUMPDEST PUSH2 0xE74 DUP2 PUSH2 0x1384 JUMP JUMPDEST DUP5 ADD SWAP2 POP POP SWAP3 SWAP2 POP POP JUMP JUMPDEST PUSH2 0xE88 DUP2 PUSH2 0x11C5 JUMP JUMPDEST DUP3 MSTORE POP POP JUMP JUMPDEST PUSH1 0x0 PUSH2 0xE9B PUSH1 0x0 DUP4 PUSH2 0x10EF JUMP JUMPDEST SWAP2 POP PUSH2 0xEA6 DUP3 PUSH2 0x1395 JUMP JUMPDEST PUSH1 0x0 DUP3 ADD SWAP1 POP SWAP2 SWAP1 POP JUMP JUMPDEST PUSH2 0xEBA DUP2 PUSH2 0x1169 JUMP JUMPDEST DUP3 MSTORE POP POP JUMP JUMPDEST PUSH2 0xEC9 DUP2 PUSH2 0x1197 JUMP JUMPDEST DUP3 MSTORE POP POP JUMP JUMPDEST PUSH2 0xED8 DUP2 PUSH2 0x11A1 JUMP JUMPDEST DUP3 MSTORE POP POP JUMP JUMPDEST PUSH2 0xEE7 DUP2 PUSH2 0x11B1 JUMP JUMPDEST DUP3 MSTORE POP POP JUMP JUMPDEST PUSH1 0x0 PUSH2 0xEF8 DUP3 PUSH2 0xE8E JUMP JUMPDEST SWAP2 POP DUP2 SWAP1 POP SWAP2 SWAP1 POP JUMP JUMPDEST PUSH1 0x0 PUSH1 0x20 DUP3 ADD SWAP1 POP PUSH2 0xF17 PUSH1 0x0 DUP4 ADD DUP5 PUSH2 0xE19 JUMP JUMPDEST SWAP3 SWAP2 POP POP JUMP JUMPDEST PUSH1 0x0 PUSH1 0x40 DUP3 ADD SWAP1 POP PUSH2 0xF32 PUSH1 0x0 DUP4 ADD DUP6 PUSH2 0xE19 JUMP JUMPDEST PUSH2 0xF3F PUSH1 0x20 DUP4 ADD DUP5 PUSH2 0xE19 JUMP JUMPDEST SWAP4 SWAP3 POP POP POP JUMP JUMPDEST PUSH1 0x0 PUSH1 0x40 DUP3 ADD SWAP1 POP PUSH2 0xF5B PUSH1 0x0 DUP4 ADD DUP6 PUSH2 0xE28 JUMP JUMPDEST DUP2 DUP2 SUB PUSH1 0x20 DUP4 ADD MSTORE PUSH2 0xF6D DUP2 DUP5 PUSH2 0xE46 JUMP JUMPDEST SWAP1 POP SWAP4 SWAP3 POP POP POP JUMP JUMPDEST PUSH1 0x0 PUSH1 0xA0 DUP3 ADD SWAP1 POP PUSH2 0xF8B PUSH1 0x0 DUP4 ADD DUP9 PUSH2 0xE37 JUMP JUMPDEST PUSH2 0xF98 PUSH1 0x20 DUP4 ADD DUP8 PUSH2 0xEDE JUMP JUMPDEST PUSH2 0xFA5 PUSH1 0x40 DUP4 ADD DUP7 PUSH2 0xEB1 JUMP JUMPDEST PUSH2 0xFB2 PUSH1 0x60 DUP4 ADD DUP6 PUSH2 0xECF JUMP JUMPDEST PUSH2 0xFBF PUSH1 0x80 DUP4 ADD DUP5 PUSH2 0xECF JUMP JUMPDEST SWAP7 SWAP6 POP POP POP POP POP POP JUMP JUMPDEST PUSH1 0x0 PUSH1 0x20 DUP3 ADD SWAP1 POP PUSH2 0xFDE PUSH1 0x0 DUP4 ADD DUP5 PUSH2 0xE7F JUMP JUMPDEST SWAP3 SWAP2 POP POP JUMP JUMPDEST PUSH1 0x0 PUSH1 0x20 DUP3 ADD SWAP1 POP PUSH2 0xFF9 PUSH1 0x0 DUP4 ADD DUP5 PUSH2 0xEC0 JUMP JUMPDEST SWAP3 SWAP2 POP POP JUMP JUMPDEST PUSH1 0x0 PUSH1 0x60 DUP3 ADD SWAP1 POP PUSH2 0x1014 PUSH1 0x0 DUP4 ADD DUP7 PUSH2 0xEC0 JUMP JUMPDEST PUSH2 0x1021 PUSH1 0x20 DUP4 ADD DUP6 PUSH2 0xEC0 JUMP JUMPDEST PUSH2 0x102E PUSH1 0x40 DUP4 ADD DUP5 PUSH2 0xEC0 JUMP JUMPDEST SWAP5 SWAP4 POP POP POP POP JUMP JUMPDEST PUSH1 0x0 PUSH1 0x20 DUP3 ADD SWAP1 POP PUSH2 0x104B PUSH1 0x0 DUP4 ADD DUP5 PUSH2 0xECF JUMP JUMPDEST SWAP3 SWAP2 POP POP JUMP JUMPDEST PUSH1 0x0 PUSH2 0x105B PUSH2 0x106C JUMP JUMPDEST SWAP1 POP PUSH2 0x1067 DUP3 DUP3 PUSH2 0x1219 JUMP JUMPDEST SWAP2 SWAP1 POP JUMP JUMPDEST PUSH1 0x0 PUSH1 0x40 MLOAD SWAP1 POP SWAP1 JUMP JUMPDEST PUSH1 0x0 PUSH8 0xFFFFFFFFFFFFFFFF DUP3 GT ISZERO PUSH2 0x1091 JUMPI PUSH2 0x1090 PUSH2 0x1337 JUMP JUMPDEST JUMPDEST PUSH1 0x20 DUP3 MUL SWAP1 POP PUSH1 0x20 DUP2 ADD SWAP1 POP SWAP2 SWAP1 POP JUMP JUMPDEST PUSH1 0x0 PUSH8 0xFFFFFFFFFFFFFFFF DUP3 GT ISZERO PUSH2 0x10BD JUMPI PUSH2 0x10BC PUSH2 0x1337 JUMP JUMPDEST JUMPDEST PUSH2 0x10C6 DUP3 PUSH2 0x1384 JUMP JUMPDEST SWAP1 POP PUSH1 0x20 DUP2 ADD SWAP1 POP SWAP2 SWAP1 POP JUMP JUMPDEST PUSH1 0x0 DUP2 MLOAD SWAP1 POP SWAP2 SWAP1 POP JUMP JUMPDEST PUSH1 0x0 DUP3 DUP3 MSTORE PUSH1 0x20 DUP3 ADD SWAP1 POP SWAP3 SWAP2 POP POP JUMP JUMPDEST PUSH1 0x0 DUP2 SWAP1 POP SWAP3 SWAP2 POP POP JUMP JUMPDEST PUSH1 0x0 PUSH2 0x1105 DUP3 PUSH2 0x1197 JUMP JUMPDEST SWAP2 POP PUSH2 0x1110 DUP4 PUSH2 0x1197 JUMP JUMPDEST SWAP3 POP DUP3 DUP3 LT ISZERO PUSH2 0x1123 JUMPI PUSH2 0x1122 PUSH2 0x127B JUMP JUMPDEST JUMPDEST DUP3 DUP3 SUB SWAP1 POP SWAP3 SWAP2 POP POP JUMP JUMPDEST PUSH1 0x0 PUSH2 0x1139 DUP3 PUSH2 0x1177 JUMP JUMPDEST SWAP1 POP SWAP2 SWAP1 POP JUMP JUMPDEST PUSH1 0x0 DUP2 ISZERO ISZERO SWAP1 POP SWAP2 SWAP1 POP JUMP JUMPDEST PUSH1 0x0 DUP2 SWAP1 POP SWAP2 SWAP1 POP JUMP JUMPDEST PUSH1 0x0 DUP2 SWAP1 POP PUSH2 0x1164 DUP3 PUSH2 0x1398 JUMP JUMPDEST SWAP2 SWAP1 POP JUMP JUMPDEST PUSH1 0x0 PUSH2 0xFFFF DUP3 AND SWAP1 POP SWAP2 SWAP1 POP JUMP JUMPDEST PUSH1 0x0 PUSH20 0xFFFFFFFFFFFFFFFFFFFFFFFFFFFFFFFFFFFFFFFF DUP3 AND SWAP1 POP SWAP2 SWAP1 POP JUMP JUMPDEST PUSH1 0x0 DUP2 SWAP1 POP SWAP2 SWAP1 POP JUMP JUMPDEST PUSH1 0x0 PUSH4 0xFFFFFFFF DUP3 AND SWAP1 POP SWAP2 SWAP1 POP JUMP JUMPDEST PUSH1 0x0 PUSH8 0xFFFFFFFFFFFFFFFF DUP3 AND SWAP1 POP SWAP2 SWAP1 POP JUMP JUMPDEST PUSH1 0x0 PUSH2 0x11D0 DUP3 PUSH2 0x1156 JUMP JUMPDEST SWAP1 POP SWAP2 SWAP1 POP JUMP JUMPDEST DUP3 DUP2 DUP4 CALLDATACOPY PUSH1 0x0 DUP4 DUP4 ADD MSTORE POP POP POP JUMP JUMPDEST PUSH1 0x0 JUMPDEST DUP4 DUP2 LT ISZERO PUSH2 0x1204 JUMPI DUP1 DUP3 ADD MLOAD DUP2 DUP5 ADD MSTORE PUSH1 0x20 DUP2 ADD SWAP1 POP PUSH2 0x11E9 JUMP JUMPDEST DUP4 DUP2 GT ISZERO PUSH2 0x1213 JUMPI PUSH1 0x0 DUP5 DUP5 ADD MSTORE JUMPDEST POP POP POP POP JUMP JUMPDEST PUSH2 0x1222 DUP3 PUSH2 0x1384 JUMP JUMPDEST DUP2 ADD DUP2 DUP2 LT PUSH8 0xFFFFFFFFFFFFFFFF DUP3 GT OR ISZERO PUSH2 0x1241 JUMPI PUSH2 0x1240 PUSH2 0x1337 JUMP JUMPDEST JUMPDEST DUP1 PUSH1 0x40 MSTORE POP POP POP JUMP JUMPDEST PUSH1 0x0 PUSH2 0x1255 DUP3 PUSH2 0x1197 JUMP JUMPDEST SWAP2 POP PUSH2 0x1260 DUP4 PUSH2 0x1197 JUMP JUMPDEST SWAP3 POP DUP3 PUSH2 0x1270 JUMPI PUSH2 0x126F PUSH2 0x12AA JUMP JUMPDEST JUMPDEST DUP3 DUP3 MOD SWAP1 POP SWAP3 SWAP2 POP POP JUMP JUMPDEST PUSH32 0x4E487B7100000000000000000000000000000000000000000000000000000000 PUSH1 0x0 MSTORE PUSH1 0x11 PUSH1 0x4 MSTORE PUSH1 0x24 PUSH1 0x0 REVERT JUMPDEST PUSH32 0x4E487B7100000000000000000000000000000000000000000000000000000000 PUSH1 0x0 MSTORE PUSH1 0x12 PUSH1 0x4 MSTORE PUSH1 0x24 PUSH1 0x0 REVERT JUMPDEST PUSH32 0x4E487B7100000000000000000000000000000000000000000000000000000000 PUSH1 0x0 MSTORE PUSH1 0x21 PUSH1 0x4 MSTORE PUSH1 0x24 PUSH1 0x0 REVERT JUMPDEST PUSH32 0x4E487B7100000000000000000000000000000000000000000000000000000000 PUSH1 0x0 MSTORE PUSH1 0x32 PUSH1 0x4 MSTORE PUSH1 0x24 PUSH1 0x0 REVERT JUMPDEST PUSH32 0x4E487B7100000000000000000000000000000000000000000000000000000000 PUSH1 0x0 MSTORE PUSH1 0x41 PUSH1 0x4 MSTORE PUSH1 0x24 PUSH1 0x0 REVERT JUMPDEST PUSH1 0x0 DUP1 REVERT JUMPDEST PUSH1 0x0 DUP1 REVERT JUMPDEST PUSH1 0x0 DUP1 REVERT JUMPDEST PUSH1 0x0 DUP1 REVERT JUMPDEST PUSH1 0x0 DUP1 REVERT JUMPDEST PUSH1 0x0 DUP1 REVERT JUMPDEST PUSH1 0x0 PUSH1 0x1F NOT PUSH1 0x1F DUP4 ADD AND SWAP1 POP SWAP2 SWAP1 POP JUMP JUMPDEST POP JUMP JUMPDEST PUSH1 0x2 DUP2 LT PUSH2 0x13A9 JUMPI PUSH2 0x13A8 PUSH2 0x12D9 JUMP JUMPDEST JUMPDEST POP JUMP JUMPDEST PUSH2 0x13B5 DUP2 PUSH2 0x1197 JUMP JUMPDEST DUP2 EQ PUSH2 0x13C0 JUMPI PUSH1 0x0 DUP1 REVERT JUMPDEST POP JUMP INVALID LOG2 PUSH5 0x6970667358 0x22 SLT KECCAK256 DUP11 SWAP16 RETURNDATASIZE 0x49 0xEB 0xC4 SWAP15 SAR 0x49 PUSH6 0x2D7D6EAEBC47 DUP14 0x2C DUP13 RETURNDATASIZE PUSH25 0xBDA6EC0639048BF234E41864736F6C63430008070033000000 "
        },
        "gasEstimates": {
          "creation": {
            "codeDepositCost": "1022600",
            "executionCost": "infinite",
            "totalCost": "infinite"
          },
          "external": {
            "checkUpkeep(bytes)": "infinite",
            "enterRaffle()": "infinite",
            "getEnteranceFee()": "infinite",
            "getLatestTimeStamp()": "2504",
            "getNumWords()": "365",
            "getNumberOfPlayers()": "2555",
            "getPlayer(uint256)": "5055",
            "getRaffleState()": "2619",
            "getRecentWinner()": "2633",
            "getRequestConfirmations()": "387",
            "performUpkeep(bytes)": "infinite",
            "rawFulfillRandomWords(uint256,uint256[])": "infinite"
          },
          "internal": {
            "fulfillRandomWords(uint256,uint256[] memory)": "infinite"
          }
        },
        "methodIdentifiers": {
          "checkUpkeep(bytes)": "6e04ff0d",
          "enterRaffle()": "2cfcc539",
          "getEnteranceFee()": "535bf50f",
          "getLatestTimeStamp()": "320229eb",
          "getNumWords()": "53a2c19a",
          "getNumberOfPlayers()": "fd6673f5",
          "getPlayer(uint256)": "e55ae4e8",
          "getRaffleState()": "115cbaf5",
          "getRecentWinner()": "473f1ddc",
          "getRequestConfirmations()": "5f1b0fd8",
          "performUpkeep(bytes)": "4585e33b",
          "rawFulfillRandomWords(uint256,uint256[])": "1fe543e3"
        }
      },
      "storageLayout": {
        "storage": [
          {
            "astId": 236,
            "contract": "contracts/Raffle.sol:Raffle",
            "label": "s_players",
            "offset": 0,
            "slot": "0",
            "type": "t_array(t_address_payable)dyn_storage"
          },
          {
            "astId": 253,
            "contract": "contracts/Raffle.sol:Raffle",
            "label": "s_recentWinner",
            "offset": 0,
            "slot": "1",
            "type": "t_address"
          },
          {
            "astId": 256,
            "contract": "contracts/Raffle.sol:Raffle",
            "label": "s_raffleState",
            "offset": 20,
            "slot": "1",
            "type": "t_enum(RaffleState)231"
          },
          {
            "astId": 258,
            "contract": "contracts/Raffle.sol:Raffle",
            "label": "s_lastTimeStamp",
            "offset": 0,
            "slot": "2",
            "type": "t_uint256"
          }
        ],
        "types": {
          "t_address": {
            "encoding": "inplace",
            "label": "address",
            "numberOfBytes": "20"
          },
          "t_address_payable": {
            "encoding": "inplace",
            "label": "address payable",
            "numberOfBytes": "20"
          },
          "t_array(t_address_payable)dyn_storage": {
            "base": "t_address_payable",
            "encoding": "dynamic_array",
            "label": "address payable[]",
            "numberOfBytes": "32"
          },
          "t_enum(RaffleState)231": {
            "encoding": "inplace",
            "label": "enum Raffle.RaffleState",
            "numberOfBytes": "1"
          },
          "t_uint256": {
            "encoding": "inplace",
            "label": "uint256",
            "numberOfBytes": "32"
          }
        }
      },
      "userdoc": {
        "kind": "user",
        "methods": {},
        "notice": "This contract is for creating an untamperable lottery.",
        "version": 1
      }
    }
  }
}