{
  "_format": "hh-sol-artifact-1",
  "contractName": "Raffle",
  "sourceName": "contracts/Raffle.sol",
  "abi": [
    {
      "inputs": [
        {
          "internalType": "address",
          "name": "vrfCoordinatorV2",
          "type": "address"
        },
        {
          "internalType": "uint256",
          "name": "enteranceFee",
          "type": "uint256"
        }
      ],
      "stateMutability": "nonpayable",
      "type": "constructor"
    },
    {
      "inputs": [
        {
          "internalType": "address",
          "name": "have",
          "type": "address"
        },
        {
          "internalType": "address",
          "name": "want",
          "type": "address"
        }
      ],
      "name": "OnlyCoordinatorCanFulfill",
      "type": "error"
    },
    {
      "inputs": [],
      "name": "Raffle_NotEnoughETHEntered",
      "type": "error"
    },
    {
      "anonymous": false,
      "inputs": [
        {
          "indexed": true,
          "internalType": "address",
          "name": "player",
          "type": "address"
        }
      ],
      "name": "RaffleEnter",
      "type": "event"
    },
    {
      "inputs": [],
      "name": "enterRaffle",
      "outputs": [],
      "stateMutability": "payable",
      "type": "function"
    },
    {
      "inputs": [],
      "name": "getEnteranceFee",
      "outputs": [
        {
          "internalType": "uint256",
          "name": "",
          "type": "uint256"
        }
      ],
      "stateMutability": "view",
      "type": "function"
    },
    {
      "inputs": [
        {
          "internalType": "uint256",
          "name": "index",
          "type": "uint256"
        }
      ],
      "name": "getPlayer",
      "outputs": [
        {
          "internalType": "address",
          "name": "",
          "type": "address"
        }
      ],
      "stateMutability": "view",
      "type": "function"
    },
    {
      "inputs": [
        {
          "internalType": "uint256",
          "name": "requestId",
          "type": "uint256"
        },
        {
          "internalType": "uint256[]",
          "name": "randomWords",
          "type": "uint256[]"
        }
      ],
      "name": "rawFulfillRandomWords",
      "outputs": [],
      "stateMutability": "nonpayable",
      "type": "function"
    }
  ],
  "bytecode": "0x60c060405234801561001057600080fd5b506040516107e33803806107e3833981810160405281019061003291906100a4565b818073ffffffffffffffffffffffffffffffffffffffff1660808173ffffffffffffffffffffffffffffffffffffffff1660601b81525050508060a081815250505050610153565b60008151905061008981610125565b92915050565b60008151905061009e8161013c565b92915050565b600080604083850312156100bb576100ba610120565b5b60006100c98582860161007a565b92505060206100da8582860161008f565b9150509250929050565b60006100ef826100f6565b9050919050565b600073ffffffffffffffffffffffffffffffffffffffff82169050919050565b6000819050919050565b600080fd5b61012e816100e4565b811461013957600080fd5b50565b61014581610116565b811461015057600080fd5b50565b60805160601c60a05161065b610188600039600081816101a101526102a501526000818160e10152610135015261065b6000f3fe60806040526004361061003f5760003560e01c80631fe543e3146100445780632cfcc5391461006d578063535bf50f14610077578063e55ae4e8146100a2575b600080fd5b34801561005057600080fd5b5061006b600480360381019061006691906103f4565b6100df565b005b61007561019f565b005b34801561008357600080fd5b5061008c6102a1565b60405161009991906104b2565b60405180910390f35b3480156100ae57600080fd5b506100c960048036038101906100c491906103c7565b6102c9565b6040516100d6919061046e565b60405180910390f35b7f000000000000000000000000000000000000000000000000000000000000000073ffffffffffffffffffffffffffffffffffffffff163373ffffffffffffffffffffffffffffffffffffffff161461019157337f00000000000000000000000000000000000000000000000000000000000000006040517f1cf993f4000000000000000000000000000000000000000000000000000000008152600401610188929190610489565b60405180910390fd5b61019b8282610310565b5050565b7f00000000000000000000000000000000000000000000000000000000000000003410156101f9576040517f74938f2700000000000000000000000000000000000000000000000000000000815260040160405180910390fd5b6000339080600181540180825580915050600190039060005260206000200160009091909190916101000a81548173ffffffffffffffffffffffffffffffffffffffff021916908373ffffffffffffffffffffffffffffffffffffffff1602179055503373ffffffffffffffffffffffffffffffffffffffff167f0805e1d667bddb8a95f0f09880cf94f403fb596ce79928d9f29b74203ba284d460405160405180910390a2565b60007f0000000000000000000000000000000000000000000000000000000000000000905090565b60008082815481106102de576102dd61058b565b5b9060005260206000200160009054906101000a900473ffffffffffffffffffffffffffffffffffffffff169050919050565b5050565b6000610327610322846104f2565b6104cd565b9050808382526020820190508285602086028201111561034a576103496105ee565b5b60005b8581101561037a578161036088826103b2565b84526020840193506020830192505060018101905061034d565b5050509392505050565b600082601f830112610399576103986105e9565b5b81356103a9848260208601610314565b91505092915050565b6000813590506103c18161060e565b92915050565b6000602082840312156103dd576103dc6105f8565b5b60006103eb848285016103b2565b91505092915050565b6000806040838503121561040b5761040a6105f8565b5b6000610419858286016103b2565b925050602083013567ffffffffffffffff81111561043a576104396105f3565b5b61044685828601610384565b9150509250929050565b6104598161051e565b82525050565b61046881610550565b82525050565b60006020820190506104836000830184610450565b92915050565b600060408201905061049e6000830185610450565b6104ab6020830184610450565b9392505050565b60006020820190506104c7600083018461045f565b92915050565b60006104d76104e8565b90506104e3828261055a565b919050565b6000604051905090565b600067ffffffffffffffff82111561050d5761050c6105ba565b5b602082029050602081019050919050565b600061052982610530565b9050919050565b600073ffffffffffffffffffffffffffffffffffffffff82169050919050565b6000819050919050565b610563826105fd565b810181811067ffffffffffffffff82111715610582576105816105ba565b5b80604052505050565b7f4e487b7100000000000000000000000000000000000000000000000000000000600052603260045260246000fd5b7f4e487b7100000000000000000000000000000000000000000000000000000000600052604160045260246000fd5b600080fd5b600080fd5b600080fd5b600080fd5b6000601f19601f8301169050919050565b61061781610550565b811461062257600080fd5b5056fea2646970667358221220a0639316d14229133bbd0cdc46b8da737e31d6758769c2f2ea1a9ac6605ba4eb64736f6c63430008070033",
  "linkReferences": {},
  "deployedLinkReferences": {}
}