{
  "_format": "hh-sol-artifact-1",
  "contractName": "Raffle",
  "sourceName": "contracts/Raffle.sol",
  "abi": [
    {
      "inputs": [
        {
          "internalType": "address",
          "name": "vrfCoordinatorV2",
          "type": "address"
        },
        {
          "internalType": "uint256",
          "name": "enteranceFee",
          "type": "uint256"
        },
        {
          "internalType": "bytes32",
          "name": "gasLane",
          "type": "bytes32"
        },
        {
          "internalType": "uint64",
          "name": "subscriptionId",
          "type": "uint64"
        },
        {
          "internalType": "uint32",
          "name": "callbackGasLimit",
          "type": "uint32"
        },
        {
          "internalType": "uint256",
          "name": "interval",
          "type": "uint256"
        }
      ],
      "stateMutability": "nonpayable",
      "type": "constructor"
    },
    {
      "inputs": [
        {
          "internalType": "address",
          "name": "have",
          "type": "address"
        },
        {
          "internalType": "address",
          "name": "want",
          "type": "address"
        }
      ],
      "name": "OnlyCoordinatorCanFulfill",
      "type": "error"
    },
    {
      "inputs": [],
      "name": "Raffle_NotEnoughETHEntered",
      "type": "error"
    },
    {
      "inputs": [],
      "name": "Raffle__NotOpen",
      "type": "error"
    },
    {
      "inputs": [],
      "name": "Raffle__TransferFailed",
      "type": "error"
    },
    {
      "inputs": [
        {
          "internalType": "uint256",
          "name": "currentBalance",
          "type": "uint256"
        },
        {
          "internalType": "uint256",
          "name": "numPlayers",
          "type": "uint256"
        },
        {
          "internalType": "uint256",
          "name": "raffleState",
          "type": "uint256"
        }
      ],
      "name": "Raffle__UpkeepNotNeeded",
      "type": "error"
    },
    {
      "anonymous": false,
      "inputs": [
        {
          "indexed": true,
          "internalType": "address",
          "name": "player",
          "type": "address"
        }
      ],
      "name": "RaffleEnter",
      "type": "event"
    },
    {
      "anonymous": false,
      "inputs": [
        {
          "indexed": true,
          "internalType": "uint256",
          "name": "requestId",
          "type": "uint256"
        }
      ],
      "name": "RequestedRaffleWinner",
      "type": "event"
    },
    {
      "anonymous": false,
      "inputs": [
        {
          "indexed": true,
          "internalType": "address",
          "name": "winner",
          "type": "address"
        }
      ],
      "name": "WinnerPicked",
      "type": "event"
    },
    {
      "inputs": [
        {
          "internalType": "bytes",
          "name": "",
          "type": "bytes"
        }
      ],
      "name": "checkUpkeep",
      "outputs": [
        {
          "internalType": "bool",
          "name": "upkeepNeeded",
          "type": "bool"
        },
        {
          "internalType": "bytes",
          "name": "",
          "type": "bytes"
        }
      ],
      "stateMutability": "nonpayable",
      "type": "function"
    },
    {
      "inputs": [],
      "name": "enterRaffle",
      "outputs": [],
      "stateMutability": "payable",
      "type": "function"
    },
    {
      "inputs": [],
      "name": "getEnteranceFee",
      "outputs": [
        {
          "internalType": "uint256",
          "name": "",
          "type": "uint256"
        }
      ],
      "stateMutability": "view",
      "type": "function"
    },
    {
      "inputs": [],
      "name": "getLatestTimeStamp",
      "outputs": [
        {
          "internalType": "uint256",
          "name": "",
          "type": "uint256"
        }
      ],
      "stateMutability": "view",
      "type": "function"
    },
    {
      "inputs": [],
      "name": "getNumWords",
      "outputs": [
        {
          "internalType": "uint32",
          "name": "",
          "type": "uint32"
        }
      ],
      "stateMutability": "pure",
      "type": "function"
    },
    {
      "inputs": [],
      "name": "getNumberOfPlayers",
      "outputs": [
        {
          "internalType": "uint256",
          "name": "",
          "type": "uint256"
        }
      ],
      "stateMutability": "view",
      "type": "function"
    },
    {
      "inputs": [
        {
          "internalType": "uint256",
          "name": "index",
          "type": "uint256"
        }
      ],
      "name": "getPlayer",
      "outputs": [
        {
          "internalType": "address",
          "name": "",
          "type": "address"
        }
      ],
      "stateMutability": "view",
      "type": "function"
    },
    {
      "inputs": [],
      "name": "getRaffleState",
      "outputs": [
        {
          "internalType": "enum Raffle.RaffleState",
          "name": "",
          "type": "uint8"
        }
      ],
      "stateMutability": "view",
      "type": "function"
    },
    {
      "inputs": [],
      "name": "getRecentWinner",
      "outputs": [
        {
          "internalType": "address",
          "name": "",
          "type": "address"
        }
      ],
      "stateMutability": "view",
      "type": "function"
    },
    {
      "inputs": [],
      "name": "getRequestConfirmations",
      "outputs": [
        {
          "internalType": "uint256",
          "name": "",
          "type": "uint256"
        }
      ],
      "stateMutability": "pure",
      "type": "function"
    },
    {
      "inputs": [
        {
          "internalType": "bytes",
          "name": "",
          "type": "bytes"
        }
      ],
      "name": "performUpkeep",
      "outputs": [],
      "stateMutability": "nonpayable",
      "type": "function"
    },
    {
      "inputs": [
        {
          "internalType": "uint256",
          "name": "requestId",
          "type": "uint256"
        },
        {
          "internalType": "uint256[]",
          "name": "randomWords",
          "type": "uint256[]"
        }
      ],
      "name": "rawFulfillRandomWords",
      "outputs": [],
      "stateMutability": "nonpayable",
      "type": "function"
    }
  ],
  "bytecode": "0x6101606040523480156200001257600080fd5b50604051620017d9380380620017d98339818101604052810190620000389190620001ad565b858073ffffffffffffffffffffffffffffffffffffffff1660808173ffffffffffffffffffffffffffffffffffffffff1660601b81525050508460a081815250508573ffffffffffffffffffffffffffffffffffffffff1660c08173ffffffffffffffffffffffffffffffffffffffff1660601b815250508360e081815250508267ffffffffffffffff166101008167ffffffffffffffff1660c01b815250508163ffffffff166101208163ffffffff1660e01b815250506000600160146101000a81548160ff02191690836001811115620001195762000118620002b5565b5b0217905550426002819055508061014081815250505050505050506200036b565b6000815190506200014b81620002e9565b92915050565b600081519050620001628162000303565b92915050565b60008151905062000179816200031d565b92915050565b600081519050620001908162000337565b92915050565b600081519050620001a78162000351565b92915050565b60008060008060008060c08789031215620001cd57620001cc620002e4565b5b6000620001dd89828a016200013a565b9650506020620001f089828a0162000168565b95505060406200020389828a0162000151565b94505060606200021689828a0162000196565b93505060806200022989828a016200017f565b92505060a06200023c89828a0162000168565b9150509295509295509295565b6000620002568262000267565b9050919050565b6000819050919050565b600073ffffffffffffffffffffffffffffffffffffffff82169050919050565b6000819050919050565b600063ffffffff82169050919050565b600067ffffffffffffffff82169050919050565b7f4e487b7100000000000000000000000000000000000000000000000000000000600052602160045260246000fd5b600080fd5b620002f48162000249565b81146200030057600080fd5b50565b6200030e816200025d565b81146200031a57600080fd5b50565b620003288162000287565b81146200033457600080fd5b50565b620003428162000291565b81146200034e57600080fd5b50565b6200035c81620002a1565b81146200036857600080fd5b50565b60805160601c60a05160c05160601c60e0516101005160c01c6101205160e01c610140516113f9620003e060003960006107aa0152600061063701526000610614015260006105f3015260006105b7015260008181610389015261072d0152600081816102c9015261031d01526113f96000f3fe6080604052600436106100a75760003560e01c8063535bf50f11610064578063535bf50f1461018957806353a2c19a146101b45780635f1b0fd8146101df5780636e04ff0d1461020a578063e55ae4e814610248578063fd6673f514610285576100a7565b8063115cbaf5146100ac5780631fe543e3146100d75780632cfcc53914610100578063320229eb1461010a5780634585e33b14610135578063473f1ddc1461015e575b600080fd5b3480156100b857600080fd5b506100c16102b0565b6040516100ce9190610fc9565b60405180910390f35b3480156100e357600080fd5b506100fe60048036038101906100f99190610dbd565b6102c7565b005b610108610387565b005b34801561011657600080fd5b5061011f6104f6565b60405161012c9190610fe4565b60405180910390f35b34801561014157600080fd5b5061015c60048036038101906101579190610ccd565b610500565b005b34801561016a57600080fd5b506101736106ff565b6040516101809190610f02565b60405180910390f35b34801561019557600080fd5b5061019e610729565b6040516101ab9190610fe4565b60405180910390f35b3480156101c057600080fd5b506101c9610751565b6040516101d69190611036565b60405180910390f35b3480156101eb57600080fd5b506101f461075a565b6040516102019190610fe4565b60405180910390f35b34801561021657600080fd5b50610231600480360381019061022c9190610d1a565b610767565b60405161023f929190610f46565b60405180910390f35b34801561025457600080fd5b5061026f600480360381019061026a9190610d63565b610814565b60405161027c9190610f02565b60405180910390f35b34801561029157600080fd5b5061029a61085b565b6040516102a79190610fe4565b60405180910390f35b6000600160149054906101000a900460ff16905090565b7f000000000000000000000000000000000000000000000000000000000000000073ffffffffffffffffffffffffffffffffffffffff163373ffffffffffffffffffffffffffffffffffffffff161461037957337f00000000000000000000000000000000000000000000000000000000000000006040517f1cf993f4000000000000000000000000000000000000000000000000000000008152600401610370929190610f1d565b60405180910390fd5b6103838282610867565b5050565b7f00000000000000000000000000000000000000000000000000000000000000003410156103e1576040517f74938f2700000000000000000000000000000000000000000000000000000000815260040160405180910390fd5b600060018111156103f5576103f46112d9565b5b600160149054906101000a900460ff166001811115610417576104166112d9565b5b1461044e576040517f1425571c00000000000000000000000000000000000000000000000000000000815260040160405180910390fd5b6000339080600181540180825580915050600190039060005260206000200160009091909190916101000a81548173ffffffffffffffffffffffffffffffffffffffff021916908373ffffffffffffffffffffffffffffffffffffffff1602179055503373ffffffffffffffffffffffffffffffffffffffff167f0805e1d667bddb8a95f0f09880cf94f403fb596ce79928d9f29b74203ba284d460405160405180910390a2565b6000600254905090565b600061051a60405180602001604052806000815250610767565b509050806105895747600080549050600160149054906101000a900460ff16600181111561054b5761054a6112d9565b5b6040517f584327aa00000000000000000000000000000000000000000000000000000000815260040161058093929190610fff565b60405180910390fd5b60018060146101000a81548160ff021916908360018111156105ae576105ad6112d9565b5b021790555060007f000000000000000000000000000000000000000000000000000000000000000073ffffffffffffffffffffffffffffffffffffffff16635d3b1d307f00000000000000000000000000000000000000000000000000000000000000007f000000000000000000000000000000000000000000000000000000000000000060037f000000000000000000000000000000000000000000000000000000000000000060016040518663ffffffff1660e01b8152600401610678959493929190610f76565b602060405180830381600087803b15801561069257600080fd5b505af11580156106a6573d6000803e3d6000fd5b505050506040513d601f19601f820116820180604052508101906106ca9190610d90565b9050807fcd6e45c8998311cab7e9d4385596cac867e20a0587194b954fa3a731c93ce78b60405160405180910390a250505050565b6000600160009054906101000a900473ffffffffffffffffffffffffffffffffffffffff16905090565b60007f0000000000000000000000000000000000000000000000000000000000000000905090565b60006001905090565b6000600361ffff16905090565b600060606000600160149054906101000a900460ff16600181111561078f5761078e6112d9565b5b600060018111156107a3576107a26112d9565b5b14905060007f0000000000000000000000000000000000000000000000000000000000000000600254426107d791906110fa565b119050600080600080549050119050600080471190508380156107f75750825b80156108005750815b80156108095750805b955050505050915091565b600080828154811061082957610828611308565b5b9060005260206000200160009054906101000a900473ffffffffffffffffffffffffffffffffffffffff169050919050565b60008080549050905090565b600080805490508260008151811061088257610881611308565b5b6020026020010151610894919061124a565b905060008082815481106108ab576108aa611308565b5b9060005260206000200160009054906101000a900473ffffffffffffffffffffffffffffffffffffffff16905080600160006101000a81548173ffffffffffffffffffffffffffffffffffffffff021916908373ffffffffffffffffffffffffffffffffffffffff1602179055506000600160146101000a81548160ff0219169083600181111561093f5761093e6112d9565b5b0217905550600067ffffffffffffffff81111561095f5761095e611337565b5b60405190808252806020026020018201604052801561098d5781602001602082028036833780820191505090505b50600090805190602001906109a3929190610a98565b504260028190555060008173ffffffffffffffffffffffffffffffffffffffff16476040516109d190610eed565b60006040518083038185875af1925050503d8060008114610a0e576040519150601f19603f3d011682016040523d82523d6000602084013e610a13565b606091505b5050905080610a4e576040517fa1d04b3900000000000000000000000000000000000000000000000000000000815260040160405180910390fd5b8173ffffffffffffffffffffffffffffffffffffffff167f5b690ec4a06fe979403046eaeea5b3ce38524683c3001f662c8b5a829632f7df60405160405180910390a25050505050565b828054828255906000526020600020908101928215610b11579160200282015b82811115610b105782518260006101000a81548173ffffffffffffffffffffffffffffffffffffffff021916908373ffffffffffffffffffffffffffffffffffffffff16021790555091602001919060010190610ab8565b5b509050610b1e9190610b22565b5090565b5b80821115610b3b576000816000905550600101610b23565b5090565b6000610b52610b4d84611076565b611051565b90508083825260208201905082856020860282011115610b7557610b74611370565b5b60005b85811015610ba55781610b8b8882610ca3565b845260208401935060208301925050600181019050610b78565b5050509392505050565b6000610bc2610bbd846110a2565b611051565b905082815260208101848484011115610bde57610bdd611375565b5b610be98482856111d7565b509392505050565b600082601f830112610c0657610c0561136b565b5b8135610c16848260208601610b3f565b91505092915050565b60008083601f840112610c3557610c3461136b565b5b8235905067ffffffffffffffff811115610c5257610c51611366565b5b602083019150836001820283011115610c6e57610c6d611370565b5b9250929050565b600082601f830112610c8a57610c8961136b565b5b8135610c9a848260208601610baf565b91505092915050565b600081359050610cb2816113ac565b92915050565b600081519050610cc7816113ac565b92915050565b60008060208385031215610ce457610ce361137f565b5b600083013567ffffffffffffffff811115610d0257610d0161137a565b5b610d0e85828601610c1f565b92509250509250929050565b600060208284031215610d3057610d2f61137f565b5b600082013567ffffffffffffffff811115610d4e57610d4d61137a565b5b610d5a84828501610c75565b91505092915050565b600060208284031215610d7957610d7861137f565b5b6000610d8784828501610ca3565b91505092915050565b600060208284031215610da657610da561137f565b5b6000610db484828501610cb8565b91505092915050565b60008060408385031215610dd457610dd361137f565b5b6000610de285828601610ca3565b925050602083013567ffffffffffffffff811115610e0357610e0261137a565b5b610e0f85828601610bf1565b9150509250929050565b610e228161112e565b82525050565b610e3181611140565b82525050565b610e408161114c565b82525050565b6000610e51826110d3565b610e5b81856110de565b9350610e6b8185602086016111e6565b610e7481611384565b840191505092915050565b610e88816111c5565b82525050565b6000610e9b6000836110ef565b9150610ea682611395565b600082019050919050565b610eba81611169565b82525050565b610ec981611197565b82525050565b610ed8816111a1565b82525050565b610ee7816111b1565b82525050565b6000610ef882610e8e565b9150819050919050565b6000602082019050610f176000830184610e19565b92915050565b6000604082019050610f326000830185610e19565b610f3f6020830184610e19565b9392505050565b6000604082019050610f5b6000830185610e28565b8181036020830152610f6d8184610e46565b90509392505050565b600060a082019050610f8b6000830188610e37565b610f986020830187610ede565b610fa56040830186610eb1565b610fb26060830185610ecf565b610fbf6080830184610ecf565b9695505050505050565b6000602082019050610fde6000830184610e7f565b92915050565b6000602082019050610ff96000830184610ec0565b92915050565b60006060820190506110146000830186610ec0565b6110216020830185610ec0565b61102e6040830184610ec0565b949350505050565b600060208201905061104b6000830184610ecf565b92915050565b600061105b61106c565b90506110678282611219565b919050565b6000604051905090565b600067ffffffffffffffff82111561109157611090611337565b5b602082029050602081019050919050565b600067ffffffffffffffff8211156110bd576110bc611337565b5b6110c682611384565b9050602081019050919050565b600081519050919050565b600082825260208201905092915050565b600081905092915050565b600061110582611197565b915061111083611197565b9250828210156111235761112261127b565b5b828203905092915050565b600061113982611177565b9050919050565b60008115159050919050565b6000819050919050565b600081905061116482611398565b919050565b600061ffff82169050919050565b600073ffffffffffffffffffffffffffffffffffffffff82169050919050565b6000819050919050565b600063ffffffff82169050919050565b600067ffffffffffffffff82169050919050565b60006111d082611156565b9050919050565b82818337600083830152505050565b60005b838110156112045780820151818401526020810190506111e9565b83811115611213576000848401525b50505050565b61122282611384565b810181811067ffffffffffffffff8211171561124157611240611337565b5b80604052505050565b600061125582611197565b915061126083611197565b9250826112705761126f6112aa565b5b828206905092915050565b7f4e487b7100000000000000000000000000000000000000000000000000000000600052601160045260246000fd5b7f4e487b7100000000000000000000000000000000000000000000000000000000600052601260045260246000fd5b7f4e487b7100000000000000000000000000000000000000000000000000000000600052602160045260246000fd5b7f4e487b7100000000000000000000000000000000000000000000000000000000600052603260045260246000fd5b7f4e487b7100000000000000000000000000000000000000000000000000000000600052604160045260246000fd5b600080fd5b600080fd5b600080fd5b600080fd5b600080fd5b600080fd5b6000601f19601f8301169050919050565b50565b600281106113a9576113a86112d9565b5b50565b6113b581611197565b81146113c057600080fd5b5056fea26469706673582212208a9f3d49ebc49e1d49652d7d6eaebc478d2c8c3d78bda6ec0639048bf234e41864736f6c63430008070033",
  "linkReferences": {},
  "deployedLinkReferences": {}
}